:10000000D2C2000001C30000FFC20000FDC2000018
:10001000FBC20000F9C20000F7C20000F5C20000F8
:10002000F3C20000F1C20000EFC20000EDC2000008
:100030000C94AF11E9C20000E7C20000E5C2000065
:10004000E3C20000E1C20000DFC20000DDC2000028
:10005000DBC20000D9C20000D7C200000C945E09C8
:10006000D3C200000C9428090C94FF08CDC20000F4
:10007000CBC20000C9C20000C7C20000C5C2000058
:10008000C3C20000C1C20000BFC20000BDC2000068
:10009000BBC20000B9C20000B7C20000B5C2000078
:1000A000B3C20000B1C20000AFC20000ADC2000088
:1000B000ABC20000A9C20000A7C20000A5C2000098
:1000C000A3C20000A1C200009FC200009DC20000A8
:1000D0009BC2000099C2000097C2000095C20000B8
:1000E00093C2000000002100240027002A002D00F8
:1000F0003000330001010000040107010A01000083
:100100002200250028002B002E00310034000201BF
:100110000000050108010B01050505050705080894
:100120000808020202020A0A080804040404010181
:100130000101010101010303030303030303040796
:1001400007070C0C0C0C0C0C0C0C0202020206062D
:100150000606060606060B0B0B0B0B0B0B0B010220
:1001600010202008081020401020408002010201C9
:100170000804020101020408102040808040201081
:1001800008040201800402018040201008040201DA
:100190000804020101020408102040800102040842
:1001A0001020408000000A0B02090C0D0E08070306
:1001B000040100000000000000000000000000003A
:1001C000000000000000000000000000000000002F
:1001D00012111000000000000000000000000000EC
:1001E00000000000000000000000CF93DF9300D06B
:1001F00000D000D01F92CDB7DEB7E0918B02F09116
:100200008C02F08010E000E0FF2029F00580F681EC
:10021000E02D008111810E94E5090E94DB096C013B
:1002200080917E0290917F02C816D90608F07EC0A8
:100230000E946C0ED0927F02C0927E020E94400CFF
:100240000091A6021091A7021A86198680E0680123
:10025000B1E1CB0ED11C0FB6F8940F92F801F28CDD
:10026000FF2009F419C1448D4423C1F050E0868178
:100270009781840F951F9783868324813581821708
:10028000930720F08081918197838683D801169609
:100290006D917C91CE0101960E94A516FA94F80109
:1002A000F28E8085882339F0C80108960E943A0AA8
:1002B00081110E947A0B0F900FBED980D7FCC0CF5E
:1002C0000C811D81D8011A968D919C91892B21F06A
:1002D000C80102960E94160A0E94DB097C018091E7
:1002E0007E0290917F02E816F90610F40E946C0ECF
:1002F000F0927F02E0927E02B9E0BD1508F4A0CF33
:10030000ED2DDD0CFF0BD80152969C918827E45708
:10031000FE4F8F4F0C949D160F020F020F024702E3
:10032000320241020F020F0247023202D0927F02D4
:10033000C0927E02FF2099F1C016D106C0F10E9442
:10034000400CE0918B02F0918C020580F681E02D4B
:10035000E680F780C70102960E94160AD7015296DE
:100360008C91529782FF17C01C966D917C91600F03
:10037000711F9801A601C7010E94EC0A882321F091
:10038000B801C7010E94460ED7015096ED91FC912D
:10039000C701199555CF8E7FF701828BF5CFE0917C
:1003A0008902F0918A028081BB24B3948111B12C1F
:1003B000E090A602F090A7020FB6F8940F92F70112
:1003C000858D8F3F09F4158ED7015E968C915E97CF
:1003D0008F3F11F45E961C920F900FBEF701828D35
:1003E000811113C06091780270917902645F7F4F30
:1003F000C7014196FBD7C8018C199D09BB2011F09C
:100400008FEF9FEF6B2D0E94150BC7010E94760A9C
:100410000E94400C811114CF0E947A0B11CF916081
:10042000F801928BCA80DB80648575856C0D7D1D1B
:100430009601A701C8010E94EC0A882309F400CFA5
:10044000D8015096ED91FC91C8011995F801828967
:1004500082FFF6CE648575856C0D7D1DC8010E94F6
:10046000460EEECE9160F801928B6A817B81758792
:1004700064876E0D7F1D9701A701C8010E94EC0AD9
:10048000DFCE91FD04C0C8010E948410D9CE9E7FAA
:10049000D80152969C93D4CE29853A85232B19F402
:1004A0000F900FBEAACE811109C08091AA028E833F
:1004B0008091A8029091A90298878F830F900FBE18
:1004C00084D70FB6F8940F92D8015D968C915D9702
:1004D0008F3F11F45D961C92F801868D8F3F09F4D1
:1004E000168E0F900FBEBE01675F7F4FCE0106963E
:1004F0002FD7811122C0C8016ED78823C9F0E984A3
:10050000FA846091780270917902645F7F4FC6012E
:100510000E94B60A61E0C7010E94150BC801E6D728
:100520000E94400C811102C00E947A0B81E093CEA0
:10053000C801DCD70E94400CF9CFC801D7D70E9470
:10054000400CC80148D7882389F357CE80917A029E
:10055000811108C08091DC02823010F00E947A0B79
:100560006AD1F4CF0FB6F8940F92E091BD02F091EA
:10057000BE02C681D781CE01029658D7809103036F
:1005800081508093030380917A02815080937A0294
:100590000F900FBE8F89988D0E948410CE010E940B
:1005A0008410D4CFB11111241FBECFEFD1E2DEBF32
:1005B000CDBF00E00CBF12E0A0E0B2E0EEE6FDE24D
:1005C00000E00BBF02C007900D92A837B107D9F722
:1005D00023E0A8E7B2E001C01D92AD3BB207E1F70E
:1005E00012E0C3EDD2E000E006C021970109802FA0
:1005F000FE010E949D16C23DD10780E00807A9F7C1
:100600000E94FB110C94B516FBCC80917B00877F78
:1006100080937B0081E480937C0080917A008064E9
:1006200080937A0080917A0086FDFCCF80917800DB
:10063000909179000895AF92BF92CF92DF92EF929E
:10064000FF920F931F93CF93DF936C017B018B017C
:10065000040F151FEB015E01AE18BF08C017D107CC
:1006600059F06991D601ED91FC910190F081E02D56
:10067000C6011995892B79F7C501DF91CF911F919B
:100680000F91FF90EF90DF90CF90BF90AF900895C3
:10069000FC01538D448D252F30E0842F90E0821B88
:1006A000930B541710F0CF96089501970895FC010D
:1006B000918D828D981761F0A28DAE0FBF2FB11D65
:1006C0005D968C91928D9F5F9F73928F90E00895BD
:1006D0008FEF9FEF0895FC01918D828D981731F077
:1006E000828DE80FF11D858D90E008958FEF9FEFCB
:1006F0000895FC01918D228D892F90E0805C9F4FA1
:10070000821B91098F739927089584E093E0F1DFAC
:1007100021E0892B09F420E0822F0895FC01A48DAB
:10072000A80FB92FB11DA35ABF4F2C91848D90E013
:1007300001968F739927848FA689B7892C93A089F6
:10074000B1898C91837080648C93938D848D981380
:1007500006C00288F389E02D80818F7D8083089513
:10076000EF92FF920F931F93CF93DF93EC0181E001
:10077000888F9B8D8C8D98131AC0E889F9898081A8
:1007800085FF15C09FB7F894EE89FF896083E889DB
:10079000F98980818370806480839FBF81E090E0CD
:1007A000DF91CF911F910F91FF90EF900895F62E5A
:1007B0000B8D10E00F5F1F4F0F731127E02E8C8DF4
:1007C0008E110BC00FB607FCFACFE889F98980813A
:1007D00085FFF5CFCE01A2DFF2CFEB8DEC0FFD2F21
:1007E000F11DE35AFF4FF0829FB7F8940B8FEA890F
:1007F000FB8980818062D0CFCF93DF93EC01888D1D
:100800008823B1F0AA89BB89E889F9898C9185FD93
:1008100003C0808186FD0CC00FB607FCF7CF8C911A
:1008200085FFF2CF808185FFEDCFCE0177DFEACF64
:10083000DF91CF91089580E090E0892B21F065DF72
:1008400081110E94000080E090E0892B49F080E057
:1008500090E0892B29F00E94000081110E94000085
:1008600080E090E0892B49F080E090E0892B29F02E
:100870000E94000081110E94000080E090E0892B1E
:1008800049F080E090E0892B29F00E94000081115E
:100890000C9400000895282F30E0F901EC55FE4F2C
:1008A0009491F901E25AFE4F4491285E3E4FF901BE
:1008B0002491222309F435C0992311F191509231EA
:1008C000F8F4E92FF0E08827E759FB4F8F4F0C949D
:1008D0009D169A049E047B04920496048004A1044D
:1008E000A704AB04B104B504B904BF04C304800475
:1008F000C704CD04D104809180008F77809380005D
:10090000E22FF0E0EE0FFF1FE250FF4FA591B491F0
:100910008FB7F894EC91611148C040954E234C93E9
:100920008FBF0895809180008F7DE8CF80918000F7
:10093000877FE4CF84B58F7784BDE2CF84B58F7D88
:10094000FBCF8091B0008F778093B000D9CF80919A
:10095000B0008F7DF9CF809190008F7780939000C9
:10096000CFCF809190008F7DF9CF80919000877FCD
:10097000F5CF8091A0008F778093A000C1CF8091A8
:10098000A0008F7DF9CF8091A000877FF5CF809167
:1009900020018F7780932001B3CF809120018F7D3C
:1009A000F9CF80912001877FF5CF4E2BB8CFCF9321
:1009B000DF9390E0FC01E25AFE4F2491885E9E4F47
:1009C000FC0184918823D1F090E0880F991FFC01ED
:1009D000EC51FF4FA591B491FC01E250FF4FC5913E
:1009E000D49161110EC09FB7F8948C91E22FE095DD
:1009F0008E238C932881E223E8839FBFDF91CF91E0
:100A000008958FB7F894EC91E22BEC938FBFF6CF5B
:100A10003FB7F8948091850290918602A091870259
:100A2000B091880226B5A89B05C02F3F19F001960A
:100A3000A11DB11D3FBFBA2FA92F982F8827BC0138
:100A4000CD01620F711D811D911D42E0660F771F60
:100A5000881F991F4A95D1F70895089590E080E086
:100A60000895E091AD02F091AE028081811107C03E
:100A70008FEF9FEF9093A2028093A1020895E091DF
:100A8000AD02F091AE020580F681E02D0680F7817F
:100A9000E02D82819381EECFCF93DF93EC0160E074
:100AA0008E81F9DE61E08E81F6DE60E08E81F3DE1C
:100AB0008BE891E00197F1F7DF91CF910895CF9204
:100AC000DF92EF92FF920F931F93CF93DF936C010E
:100AD0007C0187E0E80EF11CD0E0C0E0062F10E0BA
:100AE000B8010C2E02C0759567950A94E2F7617003
:100AF000F70181917F01CFDE2196C430D10581F7C6
:100B0000C601DF91CF911F910F91FF90EF90DF9081
:100B1000CF90C2CFCF92DF92EF92FF920F931F93AD
:100B2000CF93DF93EC01F62E642F8C81B4DE8D81A0
:100B30008F3F11F060E0AFDE0F2D10E08F8584FF56
:100B400023C06E0187E0C80ED11CF12CE12CB80146
:100B50000E2C02C0759567950A94E2F76170F60154
:100B600081916F0198DEFFEFEF1AFF0A88E0E81627
:100B7000F10469F7CE01DF91CF911F910F91FF90A2
:100B8000EF90DF90CF9088CFB80184E0759567959E
:100B90008A95E1F7CE0193DF6F2DCE01DF91CF91E2
:100BA0001F910F91FF90EF90DF90CF9088CF40E0A2
:100BB000682F81EA93E0AECF81E0F9DF8BE39FE11C
:100BC0000197F1F70895CF93DF93823029F4909144
:100BD000B00398609093B0038093B4031092B50370
:100BE00080E48093B60380E18093B70380E580932F
:100BF000B80361E08091A503DADE8091A6038F3F00
:100C000011F061E0D4DE61E08091A703D0DEC1EA9B
:100C1000D3E09E01215A33408091B00384FD0AC085
:100C200084E090E02196281739073CF461E08E813A
:100C3000BEDEEFCF88E090E0F5CF8BE39DE001973B
:100C4000F1F760E08091A50326DE60E08091A703C4
:100C500022DE8091A6038F3F11F060E01CDE8091C0
:100C6000B00384FD2CC063E081EA93E028DFCBE48D
:100C7000D6E4CE010197F1F763E081EA93E01FDF4C
:100C80002197F1F763E081EA93E019DF83E592E0D1
:100C90000197F1F762E081EA93E011DF8091B00300
:100CA000806285DF84E08093B1038CE080DF84DFA5
:100CB00082E08093B20386E0DF91CF9178CF8062AB
:100CC00076DF8BE496E40197F1F78091B0038062C0
:100CD0006EDF83E592E00197F1F78091B0038062C7
:100CE00066DFDCCF41E016DF81E090E00895FB0194
:100CF00001900020E9F73197AF01461B570BDC014B
:100D0000ED91FC910280F381E02D19948F929F92D6
:100D1000AF92BF92EF92FF920F931F93CF93DF9307
:100D2000CDB7DEB7A1970FB6F894DEBF0FBECDBF2B
:100D30007C01FA01CB0119A2223008F42AE08E01CD
:100D40000F5D1F4F822E912CB12CA12CBF01A5014C
:100D500094010E947B16F901CA016A3004F5605DB6
:100D6000D8016E938D01232B242B252B79F790E04E
:100D700080E0109719F0BD01C701B9DFA1960FB649
:100D8000F894DEBF0FBECDBFDF91CF911F910F91C1
:100D9000FF90EF90BF90AF909F908F900895695C07
:100DA000DFCF2F923F924F925F926F927F928F92FE
:100DB0009F92AF92BF92CF92DF92EF92FF921F93DA
:100DC000CF93DF93EC016A017B01722EAB01960198
:100DD000CB01B6010E94771664E272E0811126C051
:100DE00046015701E894B7F82FEF3FEF4FE75FE771
:100DF000C501B4010E94771681110CC02FEF3FEF9F
:100E00004FE75FE7C501B4010E94C61468E272E0D3
:100E1000181664F02FEF3FEF4FE75FE4C701B6010C
:100E20000E9410161816ACF46CE272E0CE01DF914D
:100E3000CF911F91FF90EF90DF90CF90BF90AF9038
:100E40009F908F907F906F905F904F903F902F90EA
:100E50004ECF2FEF3FEF4FE75FECC701B6010E9487
:100E6000C61487FDE1CF20E030E0A901C701B6013B
:100E70000E94C614312C212C87FF0DC0E881F98116
:100E80000190F081E02D6DE2CE0119951C01F7FA79
:100E9000F094F7F8F09410E060E070E080E09FE3F9
:100EA000711641F020E030E040E251E40E94CA14A3
:100EB0001F5FF6CFA70196010E9462142B013C012F
:100EC0000E9432154B015C012AE0BC01A401CE0155
:100ED0001DDF7C01E20CF31C1123D9F1C501B40123
:100EE0000E945E159B01AC01C301B2010E94611416
:100EF0004B015C01E881F9810190F081E02D6EE207
:100F0000CE011995E80EF91E115018F120E030E0DD
:100F100040E251E4C501B4010E9414162B013C01CA
:100F20000E9432154B01B12CA12C2AE0B501A4017D
:100F3000CE01ECDEE80EF91EC501B4010E945E157B
:100F40009B01AC01C301B2010E9461144B015C0121
:100F5000DBCFC701DF91CF911F91FF90EF90DF9022
:100F6000CF90BF90AF909F908F907F906F905F9049
:100F70004F903F902F9008951FDEE1E08091B403E1
:100F80008111E0E0E195F0E0EF55FC4F8489806845
:100F90000EDE60E088E07FDC61E089E07CDC35DB50
:100FA000BC01990F880B990B0E94601520E030E07E
:100FB0004AEF53E40E94141620E030EC4FE754E46B
:100FC0000E94CA146B017C0160E372E084E093E04C
:100FD0008EDE22E0B701A60184E093E0E2DE6DE35D
:100FE00072E084E093E083DE26E636E646EE5FE3D9
:100FF000C701B6010E94141620E030E040E052E440
:101000000E946214AB01BC0122E084E093E0C9DEDF
:101010006EE472E084E093E06ADE63E372E081EA0A
:1010200093E065DE22E0B701A60181EA93E0B9DE34
:10103000CCD160E08EE390E0F8D222D481119CCF35
:1010400059D39ACFB9DDE1E08091B4038111E0E09A
:10105000E195F0E0EF55FC4F84898068A8DD60E001
:1010600089E019DC61E088E016DCCFDABC01990F79
:10107000880B990B0E9460156B017C0161E572E0A1
:1010800084E093E034DE22E0B701A60184E093E03F
:1010900088DE6EE472E084E093E029DE67E572E0CA
:1010A00081EA93E024DE22E0B701A60181EA93E021
:1010B00078DE20E030E040EA51E4C701B6010E944A
:1010C000C61461E087FF60E08AE0E5DB7ED160E086
:1010D0008DE790E0AAD2D4D38111B4CF0BD3B2CF95
:1010E0008F929F92AF92BF92CF92DF92EF92FF9238
:1010F0000F931F93E0911403F091150382E0808316
:10110000E0911003F09111031082E0911203F0912D
:1011100013038FEC808310921C03E0911803F0916D
:10112000190386E08083E0911603F0911703808114
:1011300080618083E0911603F091170380818860BD
:101140008083E0911603F09117038081806880838B
:10115000E0911603F091170380818F7D808382E0F8
:1011600032DD6DE572E081EA93E0C1DD51DC4B01D7
:101170005C0188EEC82E83E0D82EE12CF12C48DCEF
:10118000681979098A099B09683E734081059105B0
:10119000B0F321E0C21AD108E108F10888EE880E08
:1011A00083E0981EA11CB11CC114D104E104F10418
:1011B00031F761E089E0FBDB61E088E0F8DB60E0CB
:1011C00087E3F5DB10E000E021E044E650E063E671
:1011D00072E08CEB97E0C1D721E044E650E067E68F
:1011E00072E082E298E0B9D71F910F91FF90EF90E3
:1011F000DF90CF90BF90AF909F908F9008951F92F7
:101200000F920FB60F9211240BB60F922F933F93AC
:101210004F935F936F937F938F939F93AF93BF93FE
:10122000EF93FF9384E093E079DAFF91EF91BF9120
:10123000AF919F918F917F916F915F914F913F916E
:101240002F910F900BBE0F900FBE0F901F9018950F
:101250001F920F920FB60F9211240BB60F922F937D
:101260008F939F93EF93FF93E0911403F0911503F5
:101270008081E0911A03F0911B0382FD1DC09081D3
:1012800080911D038F5F8F7320911E03821741F0A1
:10129000E0911D03F0E0EC5FFC4F958F80931D0300
:1012A000FF91EF919F918F912F910F900BBE0F9017
:1012B0000FBE0F901F9018958081F2CF1F920F9252
:1012C0000FB60F9211242F933F938F939F93AF9359
:1012D000BF938091810290918202A0918302B0918C
:1012E00084023091800223E0230F2D3758F50196B8
:1012F000A11DB11D209380028093810290938202F0
:10130000A0938302B093840280918502909186021B
:10131000A0918702B09188020196A11DB11D809312
:10132000850290938602A0938702B0938802BF91B2
:10133000AF919F918F913F912F910F900FBE0F9082
:101340001F90189526E8230F0296A11DB11DD2CF3C
:10135000FC01DB010FB6F8940F924091A802509166
:10136000A9022D913C9111972F3F3207E1F0818125
:1013700092816091AA027081761719F04817590777
:10138000C0F4481B590B4217530788F4241B350B34
:101390002D933C938091AA0280838091A802909122
:1013A000A9029283818380E00F900FBE08951D9261
:1013B0001C9281E0F9CF0FB6F8940F928091A802A9
:1013C0009091A9020F900FBE08958091A5028F5FA2
:1013D0008093A50208950FB6F8940F92FC01928DA8
:1013E0000F900FBE81E0911180E00895CF93DF93BD
:1013F0009C01FB01DC011196CD91DC91D383C2836A
:101400008C819D81958384838C819D81DC011396E1
:101410007C936E9312977D836C8331872087F901CB
:1014200080818F5F8083DF91CF910895CF93DF9389
:10143000FC01A085B1858281938124813581EC01F5
:101440003D832C83C481D5819B838A8311968D91A2
:101450009C9112978E179F0721F41296DC93CE93DE
:101460001197118610868C9181508C938C91DF910D
:10147000CF9108950F931F93CF93DF93DC011596BF
:10148000ED91FC91C681D7818E01045F1F4FC80189
:10149000CDDF8091A502811123C00A501109C80136
:1014A000C5DF8E8990910003981710F48093000394
:1014B000B9E08B9FC0011124B80184529D4F96DF83
:1014C000E0917802F09179029E898689891760F40B
:1014D00081E080937D02DF91CF911F910F9108955C
:1014E000B80181EC92E0EBCF80E0F5CFEF92FF9274
:1014F0000F931F93CF93DF93EC010FB6F8940F92E5
:101500001E8D7C0181E1E80EF11C01E01116D4F082
:101510008FEF8E8F0F900FBE0FB6F8940F921D8D28
:101520007E0188E0E80EF11C01E01116ACF08FEFAF
:101530008D8F0F900FBEDF91CF911F910F91FF9074
:10154000EF9008958989882319F3C70193DF8111EA
:1015500000937D021150DACF8885882341F3C701BB
:1015600089DF811100937D021150DFCF0F931F930C
:10157000CF93DF938C01FB0180819181D801139679
:101580008F3F9807F1F4E801AF81B88512968D91ED
:101590009C91139793838283EC01FD83EC83B58345
:1015A000A4831396FC93EE93129711870087F8019A
:1015B00080818F5F8083DF91CF911F910F9108957C
:1015C000D90112962D913C911397E90148815981D7
:1015D00084179507A8F7DACFFC017383628391879C
:1015E00080874617570788F0421B530B84859585E3
:1015F00048175907C0F4BF016E5F7F4F8091890281
:1016000090918A02B3DF80E008954217530718F4DF
:101610006217730740F4BF016E5F7F4F80918B02AA
:1016200090918C02EFCF81E00895FF920F931F936A
:10163000CF93DF93EC01F62E0091A8021091A9023E
:1016400080917802909179020296F0DECF3FDC071C
:1016500081F4FF2071F060917802709179026E5FE1
:101660007F4F8FEA92E0DF91CF911F910F91FF9012
:10167000BDCEC00FD11FE0917802F0917902D383E3
:10168000C2836091780270917902C017D10760F42B
:101690008091AB029091AC026E5F7F4FDF91CF9152
:1016A0001F910F91FF9062CF8091AD029091AE0299
:1016B0006E5F7F4F5BDF8091A1029091A202C817FD
:1016C000D90720F4D093A202C093A102DF91CF9159
:1016D0001F910F91FF900895FC01039692838183DF
:1016E0002FEF3FEF3483238396838583908787830F
:1016F000108208950F920FB6F8940F920BB60F92C6
:101700000CB60F921F9211242F923F924F925F922C
:101710006F927F928F929F92AF92BF92CF92DF9201
:10172000EF92FF920F931F932F933F934F935F93EB
:101730006F937F938F939F93AF93BF93CF93DF93D9
:10174000EF93FF93A0917802B09179020DB60D92BC
:101750000EB60D928091A502882321F081E080933E
:101760007D025FC010927D02A0917802B091790253
:10177000E0917802F09179022D913C918789908DCA
:1017800082179307A8F08091780290917902809156
:10179000780290917902279A2F9A2FEF87EA91E6A3
:1017A000215080409040E1F700C000001F9AF5CF23
:1017B0002091000389E001C02150422F50E0849F16
:1017C000F001859FF00D1124E452FD4F9081992383
:1017D00099F3A181B28112960D90BC91A02DB28394
:1017E000A183289FC001112481529D4FA817B907DA
:1017F00029F412968D919C919283818389E0849F34
:10180000F001859FF00D1124E452FD4F0180F2811B
:10181000E02D8681978190937902809378022093BE
:101820000003A0917802B0917902CD91CDBFDD91F6
:10183000DEBFFF91EF91DF91CF91BF91AF919F916B
:101840008F917F916F915F914F913F912F911F9158
:101850000F91FF90EF90DF90CF90BF90AF909F904F
:101860008F907F906F905F904F903F902F901F9040
:101870000F900CBE0F900BBE0F900FBE0F900895EF
:101880007F928F929F92AF92BF92CF92DF92EF9210
:10189000FF920F931F93CF93DF930FB6F8940F929D
:1018A0008091A50281508093A5028091A502882392
:1018B00089F080E00F900FBEDF91CF911F910F91C3
:1018C000FF90EF90DF90CF90BF90AF909F908F9060
:1018D0007F90089580910303882359F3D0E0C0E0FE
:1018E00029E0F22EEE24E39426C0E091C602F091A6
:1018F000C702C681D781CE010C9698DD8E010E5F9E
:101900001F4FC80193DD8E8990910003981710F442
:10191000809300038F9DC0011124B80184529D4F14
:1019200065DDE0917802F09179029E8986899817A9
:1019300010F0E0927D028091C1028111D6CFCD2BB3
:1019400009F08FD8E0907B02F0907C02E114F10462
:1019500009F4ABC089E0A82E77247394CC24CA94F0
:10196000DC2C8091A50281118EC0C091A802D0917B
:10197000A9022196D093A902C093A8022097B1F49E
:101980008091AD029091AE022091AB023091AC02F9
:101990003093AE022093AD029093AC028093AB02E1
:1019A0008091AA028F5F8093AA025BD88091A102E6
:1019B0009091A202B12CC817D90708F058C0E09145
:1019C0007802F0917902E689AE9EF0011124E4528A
:1019D000FD4F8081823010F0BB24B39480917D0252
:1019E000811103C0BB2009F457C070927D0254C01E
:1019F000E091AD02F091AE020580F681E02D068106
:101A00001781D80112968D919C91C817D90728F497
:101A10009093A2028093A102D2CF4801B2E08B0E34
:101A2000911CC40103DDF80184899589892B19F083
:101A3000C8010C96FBDCD80156968C91909100035E
:101A4000981710F4809300038A9DC0011124B401FB
:101A500084529D4FCBDCE0917802F0917902D8015D
:101A600056969C918689981710F0BB24B394E09108
:101A7000AD02F091AE0280818111BACFD092A20264
:101A8000C092A1029CCF80917B0290917C02019632
:101A900090937C0280937B02B1E0EB1AF10809F08D
:101AA00060CF10927C0210927B0280917D0288238D
:101AB00009F4FFCE1FDE81E0FDCEAF92BF92CF9240
:101AC000DF92EF92FF920F931F93CF93DF9300D09B
:101AD0001F921F92CDB7DEB78C017B011D821C8245
:101AE00080E0680128E0C20ED11C0FB6F8940F9276
:101AF000F801228D938D291708F074C0D28C448D83
:101B0000411156C080819181892B11F080E009C07C
:101B1000E480F580E114F10411F580E0F80115820C
:101B20001482D394F801D28E9189992319F0C801B7
:101B30004196A0DC8111DEDD0F900FBE81E00F9099
:101B40000F900F900F900F90DF91CF911F910F91F9
:101B5000FF90EF90DF90CF90BF90AF900895F70186
:101B600082A1815082A3268991A12917B1F2811106
:101B7000D4CF5701F2E0AF0EB11CC50157DCF7011D
:101B800081A1868B24E030E0281B3109358724872A
:101B900090910003981710F480930003F9E08F9F51
:101BA000C0011124B50184529D4F20DC81E0B6CFE5
:101BB00050E0B701828193810E94A516F801848DBF
:101BC00022813381820F932F911D938382832481FD
:101BD00035818217930708F499CF8081918193838F
:101BE000828394CF2C813D81232B21F40F900FBE53
:101BF00080E0A5CF811109C08091AA0289838091DC
:101C0000A8029091A9029B838A830F900FBEDDDB0F
:101C10000FB6F8940F92F801858D8F3F09F4158E59
:101C2000F801868D8F3F09F4168E0F900FBEBE010E
:101C30006C5F7F4FCE0101968BDB811123C00FB605
:101C4000F8940F92F801928D838D0F900FBE981328
:101C500015C0AC80BD806091780270917902645F9C
:101C60007F4FC60183DC61E0C501DFDCC8013EDCDB
:101C700007DE811101C03EDD81E037CFC80136DCCF
:101C8000FFDDFACFC80132DCFBDDB2CFCF93DF93AB
:101C900000D01F921F92CDB7DEB79C018091A602A3
:101CA0009091A7020097B1F019827B836A833D83EC
:101CB0002C8320910203BE016F5F7F4F2111209181
:101CC000A502FBDE0F900F900F900F900F90DF9109
:101CD000CF91089580E0F6CFEF92FF920F931F937C
:101CE000CF93DF93E0918B02F0918C028081811180
:101CF00013C08091890290918A0290938C02809304
:101D00008B02F0938A02E0938902DF91CF911F91B9
:101D10000F91FF90EF9008950580F681E02D0081EE
:101D20001181C681D7817E0182E0E80EF11CC701D6
:101D30007DDBE889F989CE0119958A8982FFD2CFA6
:101D40008C859D85800F911F0817190758F49B8378
:101D50008A83D987C887B70180918B0290918C02C2
:101D600005DCC0CFB801CE0191DFBCCF0F920FB61A
:101D7000F8940F920BB60F920CB60F921F9211248B
:101D80002F923F924F925F926F927F928F929F928B
:101D9000AF92BF92CF92DF92EF92FF920F931F9379
:101DA0002F933F934F935F936F937F938F939F9363
:101DB000AF93BF93CF93DF93EF93FF93A0917802FC
:101DC000B09179020DB60D920EB60D9213BE8091B0
:101DD000A5028111F6C08091A8029091A9020196F6
:101DE0009093A9028093A802009799F52091AD02E3
:101DF0003091AE024091AB025091AC025093AE02D2
:101E00004093AD023093AC022093AB022091AA0222
:101E10002F5F2093AA02E091AD02F091AE022081E3
:101E2000211107C02FEF3FEF3093A2022093A102B0
:101E300010C0E091AD02F091AE020580F681E02D78
:101E40000680F781E02D228133813093A202209316
:101E5000A1022091A1023091A2028217930710F4EF
:101E600020E09BC020E019E0E091AD02F091AE02CD
:101E70003081311107C08FEF9FEF9093A2028093C2
:101E8000A1028BC0E091AD02F091AE020580F68117
:101E9000E02D0680F781E02D42815381841795075C
:101EA00028F45093A2024093A10277C0AF014E5F85
:101EB0005F4FA285B38564817581E680F780EB0171
:101EC000FD82EC82C681D7817B836A8311966D91F6
:101ED0007C9112974617570721F41296DC93CE9304
:101EE0001197138612863C9131503C933C91A48902
:101EF000B5891097F9F066857785E088F188EB0160
:101F0000FD82EC82C089D1897B836A831196ED9032
:101F1000FC901297BF01645F7F4FE616F70621F42D
:101F20001296DC93CE931197158A148A3C91315006
:101F30003C933C91A689309100033A1710F4A0938A
:101F400000031A9FD0011124BD0164527D4F7B0113
:101F5000DB011196CD91DC91D583C4836C817D81A9
:101F6000778366836C817D81DB0113965C934E934E
:101F700012975D834C83F386E286E70138813F5FE9
:101F80003883A0917802B0917902468956963C91A7
:101F9000431708F469CF21E067CFE0917802F09110
:101FA0007902E689D9E0ED9FF0011124E452FD4F5A
:101FB0008081823008F021E080917D0281110EC085
:101FC0000AC080917B0290917C02019690937C02E2
:101FD00080937B026AC0222309F467C08091A50226
:101FE000882321F081E080937D025FC010927D0202
:101FF000A0917802B0917902E0917802F091790293
:102000002D913C918789908D82179307A8F080913C
:102010007802909179028091780290917902279AC2
:102020002F9A2FEF67EA71E6215060407040E1F788
:1020300000C000001F9AF5CF2091000389E001C085
:102040002150422F50E0849FF001859FF00D112414
:10205000E452FD4F9081992399F3A181B2811296A8
:102060000D90BC91A02DB283A183289FC0011124A3
:1020700081529D4FA817B90729F412968D919C9112
:102080009283818389E0849FF001859FF00D112464
:10209000E452FD4F0180F281E02D8681978190937B
:1020A00079028093780220930003A0917802B09186
:1020B0007902CD91CDBFDD91DEBFFF91EF91DF9130
:1020C000CF91BF91AF919F918F917F916F915F91D0
:1020D0004F913F912F911F910F91FF90EF90DF90C3
:1020E000CF90BF90AF909F908F907F906F905F90B8
:1020F0004F903F902F901F900F900CBE0F900BBEF3
:102100000F900FBE0F900895CF93DF93009739F093
:10211000EC015BD9CE014CD3DF91CF91B1CBDF91F4
:10212000CF910895CF93DF93EC014FD9CE01A4D284
:10213000EC01A6DB209769F4279A2F9A2FEF80E70E
:1021400092E0215080409040E1F700C000001F9ACB
:10215000F5CFCE01DF91CF9108957F928F929F921C
:10216000AF92BF92CF92DF92EF92FF920F931F93A5
:10217000CF93DF93982EA92E762E872E7A01B22E3A
:10218000CA01D0DF6C01892B09F4C8C088E290E055
:10219000C9DFEC01892B09F4BFC0D88ECF8AA70113
:1021A00065EA70E0C601DAD521E0E21AF108EF89AC
:1021B000F88DEE0DFF1D672D782DCE0149969B0100
:1021C000285F3F4FDB014D91BD01DC014D93CD01F7
:1021D000AB0141505109DA014C91442319F06217C7
:1021E000730781F718A2BE8AB9A21AA21B861A86A3
:1021F0001D8A1C8AD987C88784E090E08B199109D1
:102200009D878C87DB8BCA8B1BA21CA21DA21EA2E2
:102210001FA29082DF011197AC9211971C92119727
:102220001C92119780E88C9311971C9211971C9225
:1022300011971C9257971C9211971C92B697F9838D
:10224000E8830115110519F0F801D183C0830FB699
:10225000F8940F92809103038F5F80930303809122
:10226000780290917902892B09F067C0D0937902A6
:10227000C093780280910303813039F58CED92E0B0
:102280002BDA85EE92E028DA8EEE92E025DA87EFFF
:1022900092E022DA83ED92E01FDA8AEC92E01CDA17
:1022A00081EC92E019DA88EB92E016DA8FEA92E09C
:1022B00013DA83ED92E09093AE028093AD028AEC44
:1022C00092E09093AC028093AB02809101038F5F08
:1022D000809301038E8990910003981710F48093E6
:1022E0000003F9E08F9FC0011124BE016E5F7F4F94
:1022F00084529D4F7BD80F900FBE8091020388239C
:1023000049F0E0917802F091790296898E899817C8
:1023100008F4F0D981E003C0C601F6DE8FEFDF914B
:10232000CF911F910F91FF90EF90DF90CF90BF90D2
:10233000AF909F908F907F900895809102038111BC
:10234000C4CFE0917802F09179029E89868998172E
:1023500008F4BBCFD0937902C0937802B6CF06DDE4
:102360001895E4E0F3E01382128288EE93E0A0E097
:10237000B0E084839583A683B7838AE092E091835B
:10238000808385EC90E09587848784EC90E0978744
:10239000868780EC90E0918B808B81EC90E0938B32
:1023A000828B82EC90E0958B848B86EC90E0978B0F
:1023B000868B118E128E138E148EE1EAF3E0138257
:1023C00012828CE192E0918380838CE084838FEF92
:1023D00085838BE0868385E0878384E0808783E044
:1023E000818782E082871386148615861686178673
:1023F00081E00C94E305789484B5826084BD84B553
:10240000816084BD85B5826085BD85B5816085BDEF
:1024100080916E00816080936E00109281008091A7
:10242000810082608093810080918100816080932F
:102430008100809180008160809380008091B10054
:1024400084608093B1008091B00081608093B0007F
:1024500080919100826080939100809191008160D1
:102460008093910080919000816080939000809192
:10247000A10082608093A1008091A100816080937F
:10248000A1008091A00081608093A0008091210133
:1024900082608093210180912101816080932101DC
:1024A0008091200181608093200180917A00846076
:1024B00080937A0080917A00826080937A00809184
:1024C0007A00816080937A0080917A00806880939E
:1024D0007A001092C10020910402309105028FEF22
:1024E00091E2821B930B90930102809300020E9461
:1024F000700803EA12E020E040EC50E06BE672E086
:1025000086EA92E02ADE813009F0B1C00FB6F89475
:102510000F928091A6029091A702892B09F04AC0E0
:1025200086E992E0D9D88DE892E0D6D886E992E0A3
:1025300090938C0280938B028DE892E090938A02B4
:102540008093890281E590E0EDDDEC01009771F167
:102550004F96998388838AE08B8F85E08C8F0FB6A6
:10256000F8940F92888199812B8D4C8DBC01249F0A
:10257000600D711D11247D836C831A8E9B838A8369
:102580002150330B429FB001439F700D1124860FE1
:10259000971F9F838E838FEF8D8F8E8FCE0108962E
:1025A0009BD8CE01419698D80F900FBED093A7022A
:1025B000C093A6020F900FBE8091A6029091A70231
:1025C000892B09F454C00FE912E023E045E550E0FF
:1025D00060E772E085EF90E0C0DD813009F047C030
:1025E000F8942FEF3FEF3093A2022093A102809343
:1025F00002031092A9021092A802A89588E190EC1B
:102600000FB6F894A895809360000FBE9093600079
:10261000A0917802B0917902CD91CDBFDD91DEBF5E
:10262000FF91EF91DF91CF91BF91AF919F918F91EA
:102630007F916F915F914F913F912F911F910F91DA
:10264000FF90EF90DF90CF90BF90AF909F908F90D2
:102650007F906F905F904F903F902F901F900F90C2
:102660000CBE0F900BBE0F900FBE0F9008950E94EE
:1026700070080E941B04FDCF0F931F93CF93DF932D
:102680008230910510F482E090E0E091BB03F0917C
:10269000BC0330E020E0B0E0A0E0309799F42115D1
:1026A000310509F44AC0281B390B24303105D8F50F
:1026B0008A819B816115710589F1FB019383828376
:1026C000FE0111C0408151810281138148175907D1
:1026D000E0F04817590799F4109761F012960C939F
:1026E000129713961C933296CF01DF91CF911F91D1
:1026F0000F9108950093BB031093BC03F4CF2115F1
:10270000310551F04217530738F0A901DB019A0156
:10271000BD01DF01F801C1CFEF01F9CF9093BC03F8
:102720008093BB03CDCFFE01E20FF31F8193919302
:102730002250310939832883D7CF2091B9033091B2
:10274000BA03232B41F4209102023091030230930B
:10275000BA032093B90320910002309101022115A0
:10276000310541F42DB73EB7409104025091050266
:10277000241B350BE091B903F091BA03E217F3077C
:10278000A0F42E1B3F0B2817390778F0AC014E5FE1
:102790005F4F2417350748F04E0F5F1F5093BA0361
:1027A0004093B903819391939FCFF0E0E0E09CCFF9
:1027B000CF93DF930097E9F0FC01329713821282E6
:1027C000A091BB03B091BC03ED0130E020E0109775
:1027D000A1F420813181820F931F2091B9033091A0
:1027E000BA032817390709F061C0F093BA03E093E0
:1027F000B903DF91CF910895EA01CE17DF07E8F51D
:102800004A815B819E0141155105B1F7E901FB83C6
:10281000EA8349915991C40FD51FEC17FD0761F464
:10282000808191810296840F951FE90199838883A5
:10283000828193819B838A83F0E0E0E012968D9100
:102840009C9113970097B9F52D913C911197CD016B
:102850000296820F931F2091B9033091BA03281773
:10286000390739F6309751F51092BC031092BB032B
:10287000B093BA03A093B903BCCFD383C283408182
:102880005181840F951FC817D90761F44E5F5F4FC0
:1028900088819981480F591F518340838A819B8188
:1028A000938382832115310509F0B0CFF093BC03E7
:1028B000E093BB039ECFFD01DC01C0CF13821282E7
:1028C000D7CF5058BB27AA270ED070C161D130F0A6
:1028D00066D120F031F49F3F11F41EF456C10EF47E
:1028E000E095E7FB4CC1E92F72D180F3BA1762077C
:1028F00073078407950718F071F49EF58AC10EF4EA
:10290000E0950B2EBA2FA02D0B01B90190010C01FF
:10291000CA01A0011124FF27591B99F0593F50F417
:10292000503E68F11A16F040A22F232F342F44276F
:10293000585FF3CF469537952795A795F040539567
:10294000C9F77EF41F16BA0B620B730B840BBAF037
:102950009150A1F0FF0FBB1F661F771F881FC2F7A2
:102960000EC0BA0F621F731F841F48F487957795B6
:102970006795B795F7959E3F08F0B3CF9395880F6D
:1029800008F09927EE0F979587950895D4D008F40D
:1029900081E008950CD00AC102D140F0F9D030F0A6
:1029A00021F45F3F19F0EBC0511134C1EEC00FD1DB
:1029B00098F39923C9F35523B1F3951B550BBB2706
:1029C000AA2762177307840738F09F5F5F4F220FB3
:1029D000331F441FAA1FA9F333D00E2E3AF0E0E8AC
:1029E00030D091505040E695001CCAF729D0FE2FF8
:1029F00027D0660F771F881FBB1F2617370748078A
:102A0000AB07B0E809F0BB0B802DBF01FF2793583F
:102A10005F4F2AF09E3F510568F0B1C0FBC05F3F99
:102A2000ECF3983EDCF3869577956795B795F79527
:102A30009F5FC9F7880F911D9695879597F908951F
:102A4000E1E0660F771F881FBB1F621773078407BB
:102A5000BA0720F0621B730B840BBA0BEE1F88F7CA
:102A6000E0950895BCD088F09F5790F0B92F992732
:102A7000B751A0F0D1F0660F771F881F991F1AF089
:102A8000BA95C9F712C0B13081F0C3D0B1E0089552
:102A9000C0C0672F782F8827B85F39F0B93FCCF3D3
:102AA000869577956795B395D9F73EF4909580957F
:102AB000709561957F4F8F4F9F4F0895E89409C09F
:102AC00097FB3EF490958095709561957F4F8F4F61
:102AD0009F4F9923A9F0F92F96E9BB279395F69577
:102AE000879577956795B795F111F8CFFAF4BB0FF5
:102AF00011F460FF1BC06F5F7F4F8F4F9F4F16C059
:102B0000882311F096E911C0772321F09EE8872FE2
:102B1000762F05C0662371F096E8862F70E060E09E
:102B20002AF09A95660F771F881FDAF7880F969517
:102B3000879597F90895990F0008550FAA0BE0E8BB
:102B4000FEEF16161706E807F907C0F0121613066F
:102B5000E407F50798F0621B730B840B950B39F4AF
:102B60000A2661F0232B242B252B21F408950A2615
:102B700009F4A140A6958FEF811D811D089597F955
:102B80009F6780E870E060E008959FEF80EC089513
:102B900000240A941616170618060906089500243C
:102BA0000A9412161306140605060895092E0394B6
:102BB000000C11F4882352F0BB0F40F4BF2B11F42A
:102BC00060FF04C06F5F7F4F8F4F9F4F089557FD89
:102BD0009058440F551F59F05F3F71F04795880F8B
:102BE00097FB991F61F09F3F79F087950895121622
:102BF00013061406551FF2CF4695F1DF08C01616CE
:102C000017061806991FF1CF86957105610508947E
:102C10000895E894BB2766277727CB0197F9089595
:102C20008ADF08F48FEF08950BD0C0CFB1DF28F012
:102C3000B6DF18F0952309F0A2CFA7CF1124EACF71
:102C4000C6DFA0F3959FD1F3950F50E0551F629F0B
:102C5000F001729FBB27F00DB11D639FAA27F00DF5
:102C6000B11DAA1F649F6627B00DA11D661F829F1C
:102C70002227B00DA11D621F739FB00DA11D621F01
:102C8000839FA00D611D221F749F3327A00D611D1E
:102C9000231F849F600D211D822F762F6A2F112400
:102CA0009F5750408AF0E1F088234AF0EE0FFF1F53
:102CB000BB1F661F771F881F91505040A9F79E3F8A
:102CC000510570F05CCFA6CF5F3FECF3983EDCF38C
:102CD000869577956795B795F795E7959F5FC1F7C7
:102CE000FE2B880F911D9695879597F9089523DF00
:102CF000880B990B0895A1E21A2EAA1BBB1BFD019C
:102D00000DC0AA1FBB1FEE1FFF1FA217B307E407CA
:102D1000F50720F0A21BB30BE40BF50B661F771F22
:102D2000881F991F1A9469F7609570958095909502
:102D30009B01AC01BD01CF010895EE0FFF1F881F5D
:102D40008BBF0790F691E02D1994FB01DC0102C0C6
:102D500001900D9241505040D8F70895DC0101C018
:0E2D60006D9341505040E0F70895F894FFCF76
:102D6E000000BD03800000000000B0031B034803F9
:102D7E00FC03790357036B030000000072061B036C
:102D8E002E052D056E616E00696E66006F7666000B
:102D9E00696E20446567726565433D090020696E62
:102DAE002046616872656E686569743D09000D0A9A
:102DBE00004C44523D09004C45443D09005374619A
:102DCE007274004C444D004C44520049444C450032
:082DDE00546D7220537663006E
:00000001FF
