:10000000D2C00000FEC00000FCC00000FAC000002A
:10001000F8C00000F6C00000F4C00000F2C000000C
:10002000F0C00000EEC00000ECC00000EAC000001C
:10003000E8C00000E6C00000E4C00000E2C000002C
:10004000E0C00000DEC00000DCC00000DAC000003C
:10005000D8C00000D6C00000D4C000009DC300007E
:10006000D0C0000063C3000038C30000CAC0000055
:10007000C8C00000C6C00000C4C00000C2C000006C
:10008000C0C00000BEC00000BCC00000BAC000007C
:10009000B8C00000B6C00000B4C00000B2C000008C
:1000A000B0C00000AEC00000ACC00000AAC000009C
:1000B000A8C00000A6C00000A4C00000A2C00000AC
:1000C000A0C000009EC000009CC000009AC00000BC
:1000D00098C0000096C0000094C0000092C00000CC
:1000E00090C0000000002200250028002B002E00F8
:1000F0003100340002010000050108010B0100007D
:100100002100240027002A002D00300033000101C7
:100110000000040107010A01050505050705080897
:100120000808020202020A0A080804040404010181
:100130000101010101010303030303030303040796
:1001400007070C0C0C0C0C0C0C0C0202020206062D
:100150000606060606060B0B0B0B0B0B0B0B010220
:1001600010202008081020401020408002010201C9
:100170000804020101020408102040808040201081
:1001800008040201800402018040201008040201DA
:100190000804020101020408102040800102040842
:1001A00010204080660511241FBECFEFD1E2DEBFD4
:1001B000CDBF00E00CBF12E0A0E0B2E0E2EBFFE058
:1001C00000E00BBF02C007900D92A034B107D9F731
:1001D00022E0A0E4B2E001C01D92AE3EB207E1F71A
:1001E00010E0C3EDD0E000E005C021970109802FA9
:1001F000FE01D5D6C23DD10780E00807B1F716D37E
:10020000D6C6FECEAF92BF92CF92DF92EF92FF9210
:100210000F931F93CF93DF936C017B018B01040F2E
:10022000151FEB015E01AE18BF08C017D10759F0CA
:100230006991D601ED91FC910190F081E02DC6010C
:100240001995892B79F7C501DF91CF911F910F91F6
:10025000FF90EF90DF90CF90BF90AF900895FC019A
:10026000538D448D252F30E0842F90E0821B930B1B
:10027000541710F0CF96089501970895FC01918DC1
:10028000828D981761F0A28DAE0FBF2FB11D5D96C4
:100290008C91928D9F5F9F73928F90E008958FEF66
:1002A0009FEF0895FC01918D828D981731F0828D1A
:1002B000E80FF11D858D90E008958FEF9FEF089571
:1002C000FC01918D228D892F90E0805C9F4F821BD5
:1002D00091098F739927089581E592E0F1DF21E07C
:1002E000892B09F420E0822F0895FC01A48DA80F2A
:1002F000B92FB11DA35ABF4F2C91848D90E0019668
:100300008F739927848FA689B7892C93A089B18987
:100310008C91837080648C93938D848D981306C028
:100320000288F389E02D80818F7D80830895EF928C
:10033000FF920F931F93CF93DF93EC0181E0888F9F
:100340009B8D8C8D98131AC0E889F989808185FF6F
:1003500015C09FB7F894EE89FF896083E889F98911
:1003600080818370806480839FBF81E090E0DF9113
:10037000CF911F910F91FF90EF900895F62E0B8D66
:1003800010E00F5F1F4F0F731127E02E8C8D8E1121
:100390000BC00FB607FCFACFE889F989808185FF89
:1003A000F5CFCE01A2DFF2CFEB8DEC0FFD2FF11DCB
:1003B000E35AFF4FF0829FB7F8940B8FEA89FB89CD
:1003C00080818062D0CFCF93DF93EC01888D88232A
:1003D000B1F0AA89BB89E889F9898C9185FD03C0B0
:1003E000808186FD0CC00FB607FCF7CF8C9185FF8E
:1003F000F2CF808185FFEDCFCE0177DFEACFDF91AD
:10040000CF91089580E090E0892B21F065DF811184
:100410000E94000080E090E0892B49F080E090E0AD
:10042000892B29F00E94000081110E94000080E0C9
:1004300090E0892B49F080E090E0892B29F00E9420
:10044000000081110E94000080E090E0892B49F0BB
:1004500080E090E0892B29F00E94000081110C942B
:10046000000008953FB7F8948091450290914602AC
:10047000A0914702B091480226B5A89B05C02F3F26
:1004800019F00196A11DB11D3FBFBA2FA92F982FBA
:100490008827BC01CD01620F711D811D911D42E0B5
:1004A000660F771F881F991F4A95D1F70895FC01A1
:1004B00001900020E9F73197AF01481B590BBC01AF
:1004C00081E592E09FCE8F929F92AF92BF920F9361
:1004D0001F93CF93DF93CDB7DEB7A1970FB6F894F4
:1004E000DEBF0FBECDBF19A2423008F44AE08E0134
:1004F0000F5D1F4F842E912CB12CA12CA5019401CE
:100500002CD5E62FB901CA01EA30ECF4E05DD80140
:10051000EE938D01232B242B252B81F790E080E097
:10052000109711F0CD01C3DFA1960FB6F894DEBF8E
:100530000FBECDBFDF91CF911F910F91BF90AF90B4
:100540009F908F900895E95CE2CF4F925F926F92F7
:100550007F928F929F92AF92BF92CF92DF92EF9253
:10056000FF920F931F93CF936B017C01742EAC010C
:100570009B01EFD4882391F082E192E0CF911F910B
:100580000F91FF90EF90DF90CF90BF90AF909F9032
:100590008F907F906F905F904F9089CF4601570169
:1005A000E894B7F82FEF3FEF4FE75FE7C501B401DD
:1005B000D0D481110CC02FEF3FEF4FE75FE7C501AB
:1005C000B40116D318161CF486E192E0D7CF2FEFB2
:1005D0003FEF4FE75FE4C701B60154D418161CF48F
:1005E0008AE192E0CBCF2FEF3FEF4FE75FECC701FF
:1005F000B601FED287FDF4CF20E030E0A901C701AB
:10060000B601F6D210E000E087FF09C06DE281E597
:1006100092E08DDE8C01F7FAF094F7F8F094C0E0E8
:1006200060E070E080E09FE37C1639F020E030E08D
:1006300040E251E4E1D2CF5FF7CFA701960174D237
:100640002B013C0141D34B015C014AE03CDF7C01C2
:10065000E00EF11ECC2381F1C501B40161D39B01F1
:10066000AC01C301B2015FD24B015C016EE281E5D6
:1006700092E05DDEE80EF91EC150F0F020E030E0BF
:1006800040E251E4C501B40101D42B013C011CD36B
:100690004B01B12CA12C4AE0C501B40114DFE80ED6
:1006A000F91EC501B4013CD39B01AC01C301B201E9
:1006B0003AD24B015C01E0CFC701CF911F910F915E
:1006C000FF90EF90DF90CF90BF90AF909F908F9072
:1006D0007F906F905F904F9008951F920F920FB68A
:1006E0000F9211240BB60F922F933F934F935F936A
:1006F0006F937F938F939F93AF93BF93EF93FF93EA
:1007000081E592E0F2DDFF91EF91BF91AF919F9172
:100710008F917F916F915F914F913F912F910F90AA
:100720000BBE0F900FBE0F901F9018951F920F9247
:100730000FB60F9211240BB60F922F938F939F93A6
:10074000EF93FF93E0916102F09162028081E0916A
:100750006702F091680282FD1DC0908180916A025B
:100760008F5F8F7320916B02821741F0E0916A02D4
:10077000F0E0EF5AFD4F958F80936A02FF91EF9161
:100780009F918F912F910F900BBE0F900FBE0F90E6
:100790001F9018958081F2CF1F920F920FB60F9283
:1007A00011242F933F938F939F93AF93BF93809187
:1007B000410290914202A0914302B09144023091D3
:1007C000400223E0230F2D3758F50196A11DB11DDE
:1007D000209340028093410290934202A0934302EF
:1007E000B09344028091450290914602A091470245
:1007F000B09148020196A11DB11D809345029093CE
:100800004602A0934702B0934802BF91AF919F91D7
:100810008F913F912F910F900FBE0F901F901895C1
:1008200026E8230F0296A11DB11DD2CF789484B57E
:10083000826084BD84B5816084BD85B5826085BDDC
:1008400085B5816085BD80916E00816080936E006A
:10085000109281008091810082608093810080915C
:10086000810081608093810080918000816080930D
:1008700080008091B10084608093B1008091B000CD
:1008800081608093B000809191008260809391009C
:1008900080919100816080939100809190008160AF
:1008A000809390008091A10082608093A10080914C
:1008B000A10081608093A1008091A000816080935D
:1008C000A00080912101826080932101809121010B
:1008D00081608093210180912001816080932001BB
:1008E00080917A00846080937A0080917A0082609F
:1008F00080937A0080917A00816080937A00809161
:100900007A00806880937A001092C100E5E9F1E0F6
:100910002491EFE4F1E084918823C1F090E0880F06
:10092000991FFC01E250FF4FC591D491FC01EC519D
:10093000FF4FA591B4919FB7F8948881E22FE0957D
:100940008E2388838C91E823EC939FBFE091610212
:10095000F091620282E08083E0915D02F0915E029C
:100960001082E0915F02F09160028FEC8083109220
:100970006902E0916502F091660286E08083E09171
:100980006302F0916402808180618083E091630260
:10099000F0916402808188608083E0916302F0912D
:1009A0006402808180688083E0916302F091640238
:1009B00080818F7D8083C1E480917B00877F8093DD
:1009C0007B00C0937C0080917A00806480937A00E1
:1009D00080917A0086FDFCCF80917800609179004B
:1009E000762F682F072E000C880B990B9BD120E0E7
:1009F00030E04AEF53E44AD220E030EC4FE754E4D1
:100A0000FBD060934D0270934E0280934F029093FF
:100A1000500226E636E646EE5FE338D220E030E0CC
:100A200040E052E481D06093490270934A0280937F
:100A30004B0290934C028EE192E039DD8AE292E023
:100A400036DD60914D0270914E0280914F0290917F
:100A5000500242E07ADD8CE292E029DD8EE292E003
:100A600026DD8AE292E023DD6091490270914A021C
:100A700080914B0290914C0242E067DD8DE392E061
:100A800016DDF0DC4B015C0184EFC82EDD24D3942D
:100A9000E12CF12CE7DC681979098A099B09683E89
:100AA000734081059105B0F321E0C21AD108E10835
:100AB000F10888EE880E83E0981EA11CB11CC114B9
:100AC000D104E104F10431F79DDC76CFE1E5F2E0F9
:100AD0001382128288EE93E0A0E0B0E084839583D5
:100AE000A683B78384E092E09183808385EC90E0D5
:100AF0009587848784EC90E09787868780EC90E0E8
:100B0000918B808B81EC90E0938B828B82EC90E0D8
:100B1000958B848B86EC90E0978B868B118E128E52
:100B2000138E148E08955058BB27AA270ED070C17B
:100B300061D130F066D120F031F49F3F11F41EF402
:100B400056C10EF4E095E7FB4CC1E92F72D180F35A
:100B5000BA17620773078407950718F071F49EF5BA
:100B60008AC10EF4E0950B2EBA2FA02D0B01B9010E
:100B700090010C01CA01A0011124FF27591B99F013
:100B8000593F50F4503E68F11A16F040A22F232F1F
:100B9000342F4427585FF3CF469537952795A7956F
:100BA000F0405395C9F77EF41F16BA0B620B730B16
:100BB000840BBAF09150A1F0FF0FBB1F661F771F87
:100BC000881FC2F70EC0BA0F621F731F841F48F43C
:100BD000879577956795B795F7959E3F08F0B3CFC2
:100BE0009395880F08F09927EE0F979587950895AC
:100BF000D4D008F481E008950CD00AC102D140F0AD
:100C0000F9D030F021F45F3F19F0EBC0511134C13D
:100C1000EEC00FD198F39923C9F35523B1F3951B77
:100C2000550BBB27AA2762177307840738F09F5F0D
:100C30005F4F220F331F441FAA1FA9F333D00E2E7C
:100C40003AF0E0E830D091505040E695001CCAF7E9
:100C500029D0FE2F27D0660F771F881FBB1F2617AE
:100C600037074807AB07B0E809F0BB0B802DBF0181
:100C7000FF2793585F4F2AF09E3F510568F0B1C09F
:100C8000FBC05F3FECF3983EDCF386957795679564
:100C9000B795F7959F5FC9F7880F911D9695879532
:100CA00097F90895E1E0660F771F881FBB1F621751
:100CB00073078407BA0720F0621B730B840BBA0B0F
:100CC000EE1F88F7E0950895BCD088F09F5790F00C
:100CD000B92F9927B751A0F0D1F0660F771F881F61
:100CE000991F1AF0BA95C9F712C0B13081F0C3D07C
:100CF000B1E00895C0C0672F782F8827B85F39F01A
:100D0000B93FCCF3869577956795B395D9F73EF4BF
:100D100090958095709561957F4F8F4F9F4F089567
:100D2000E89409C097FB3EF4909580957095619585
:100D30007F4F8F4F9F4F9923A9F0F92F96E9BB273B
:100D40009395F695879577956795B795F111F8CFB7
:100D5000FAF4BB0F11F460FF1BC06F5F7F4F8F4F22
:100D60009F4F16C0882311F096E911C0772321F018
:100D70009EE8872F762F05C0662371F096E8862FB0
:100D800070E060E02AF09A95660F771F881FDAF707
:100D9000880F9695879597F90895990F0008550F34
:100DA000AA0BE0E8FEEF16161706E807F907C0F0F1
:100DB00012161306E407F50798F0621B730B840BF9
:100DC000950B39F40A2661F0232B242B252B21F4D3
:100DD00008950A2609F4A140A6958FEF811D811D73
:100DE000089597F99F6780E870E060E008959FEFAD
:100DF00080EC089500240A941616170618060906B2
:100E0000089500240A941216130614060506089580
:100E1000092E0394000C11F4882352F0BB0F40F408
:100E2000BF2B11F460FF04C06F5F7F4F8F4F9F4F48
:100E3000089557FD9058440F551F59F05F3F71F0CA
:100E40004795880F97FB991F61F09F3F79F0879531
:100E50000895121613061406551FF2CF4695F1DFBA
:100E600008C0161617061806991FF1CF869571054A
:100E7000610508940895E894BB2766277727CB017E
:100E800097F908958ADF08F48FEF08950BD0C0CF4B
:100E9000B1DF28F0B6DF18F0952309F0A2CFA7CF75
:100EA0001124EACFC6DFA0F3959FD1F3950F50E050
:100EB000551F629FF001729FBB27F00DB11D639F0C
:100EC000AA27F00DB11DAA1F649F6627B00DA11DB2
:100ED000661F829F2227B00DA11D621F739FB00D58
:100EE000A11D621F839FA00D611D221F749F3327C8
:100EF000A00D611D231F849F600D211D822F762F61
:100F00006A2F11249F5750408AF0E1F088234AF05D
:100F1000EE0FFF1FBB1F661F771F881F91505040A9
:100F2000A9F79E3F510570F05CCFA6CF5F3FECF371
:100F3000983EDCF3869577956795B795F795E79595
:100F40009F5FC1F7FE2B880F911D9695879597F9A6
:100F5000089523DF880B990B0895A1E21A2EAA1B8E
:100F6000BB1BFD010DC0AA1FBB1FEE1FFF1FA21759
:100F7000B307E407F50720F0A21BB30BE40BF50B56
:100F8000661F771F881F991F1A9469F760957095DF
:100F9000809590959B01AC01BD01CF010895EE0FA6
:100FA000FF1F881F8BBF0790F691E02D1994F894CE
:020FB000FFCF71
:100FB20000000000970102012F01E30160013E01E0
:100FC20052016E616E00696E66006F766600696E30
:100FD20020446567726565433D0009002000696E23
:100FE2002046616872656E686569743D000D0A008D
:00000001FF
