:10000000BCC20000EBC20000E9C20000E7C2000071
:10001000E5C20000E3C20000E1C20000DFC2000050
:10002000DDC20000DBC20000D9C20000D7C2000060
:100030000C94B60FD3C20000D1C20000CFC20000A2
:10004000CDC20000CBC20000C9C20000C7C2000080
:10005000C5C20000C3C20000C1C20000D6C5000076
:10006000BDC2000045C600001AC60000B7C20000AD
:10007000B5C20000B3C20000B1C20000AFC20000B0
:10008000ADC20000ABC20000A9C20000A7C20000C0
:10009000A5C20000A3C20000A1C200009FC20000D0
:1000A0009DC200009BC2000099C2000097C20000E0
:1000B00095C2000093C2000091C200008FC20000F0
:1000C0008DC200008BC2000089C2000087C2000000
:1000D00085C2000083C2000081C200007FC2000010
:1000E0007DC2000000000A0B02090C0D0E08070378
:1000F00004010000000000000000000000000000FB
:1001000000000000000000000000000000000000EF
:1001100012111000000000000000000000000000AC
:100120000000000000000000000000002200250088
:1001300028002B002E0031003400020100000501D0
:1001400008010B0100002100240027002A002D00D7
:100150003000330001010000040107010A01050518
:100160000505070508080808020202020A0A08082D
:10017000040404040101010101010101030303035B
:1001800003030303040707070C0C0C0C0C0C0C0CEA
:100190000202020206060606060606060B0B0B0BFB
:1001A0000B0B0B0B01021020200808102040102020
:1001B000408002010201080402010102040810202B
:1001C0004080804020100804020180040201804029
:1001D0002010080402010804020101020408102092
:1001E00040800102040810204080CF93DF9300D0AC
:1001F00000D000D01F92CDB7DEB7E091D702F091CA
:10020000D802F08010E000E0FF2029F00580F681A0
:10021000E02D00811181DFD5D4D56C018091D3020E
:100220009091D402C816D90608F07AC00E94710BCA
:10023000D092D402C092D3020E9446090091E402F7
:100240001091E5021A86198680E06801B1E1CB0EB3
:10025000D11C0FB6F8940F92F801F28CFF2009F42C
:100260000CC1448D4423C1F050E086819781840FF6
:10027000951F97838683248135818217930720F009
:100280008081918197838683D80116966D917C91A8
:10029000CE0101960E949611FA94F801F28E8085A3
:1002A000882329F0C8010896EBD5811129D70F9032
:1002B0000FBED980D7FCC2CF0C811D81D8011A9600
:1002C0008D919C91892B19F0C8010296B5D579D5ED
:1002D0007C018091D3029091D402E816F90610F4C3
:1002E0000E94710BF092D402E092D302B9E0BD15E6
:1002F00008F4A4CFED2DDD0CFF0BD80152969C9194
:100300008827EA57FE4F8F4F0C948E11020202028B
:1003100002023802240232020202020238022402DD
:10032000D092D402C092D302FF2081F1C016D10630
:10033000A8F1ACD7E091D702F091D8020580F68100
:10034000E02DE680F780C701029676D5D701529658
:100350008C91529782FF16C01C966D917C91600F14
:10036000711F9801A601C7013DD6882321F0B8016D
:10037000C7010E944B0BD7015096ED91FC91C7012C
:1003800019955CCF8E7FF701828BF5CFE091D50276
:10039000F091D6028081BB24B3948111B12CE090FE
:1003A000E402F090E5020FB6F8940F92F701858D04
:1003B0008F3F09F4158ED7015E968C915E978F3F23
:1003C00011F45E961C920F900FBEF701828D811181
:1003D00012C06091820270918302645F7F4FC701F7
:1003E00041960AD5C8018C199D09BB2011F08FEFE9
:1003F0009FEF6B2D20D6C7017FD548D781111ECF27
:100400007FD61CCF9160F801928BCA80DB80648517
:1004100075856C0D7D1D9601A701C801E3D5882364
:1004200009F40CCFD8015096ED91FC91C8011995B3
:10043000F801828982FF02CF648575856C0D7D1D70
:10044000C8010E944B0BFACE9160F801928B6A8131
:100450007B81758764876E0D7F1D9701A701C80199
:10046000C1D5ECCE91FD04C0C8010E949A0DE6CE24
:100470009E7FD80152969C93E1CE29853A85232B05
:1004800019F40F900FBEB9CE811109C08091E80216
:100490008E838091E6029091E70298878F830F9078
:1004A0000FBE99D40FB6F8940F92D8015D968C9137
:1004B0005D978F3F11F45D961C92F801868D8F3FFA
:1004C00009F4168E0F900FBEBE01675F7F4FCE01FD
:1004D000069644D481111DC0C80183D48823A9F095
:1004E000E984FA846091820270918302645F7F4F95
:1004F000C60142D561E0C7019ED5C801FDD4C6D66C
:10050000811101C0FDD581E0A4CEC801F5D4BED6CD
:10051000FACFC801F1D4BAD6C80163D4882399F3BD
:100520006CCE80918402811107C08091E9028230F3
:1005300008F0E6D573D1F5CF0FB6F8940F92E0919D
:10054000B202F091B302C681D781CE01029674D473
:100550008091D20281508093D20280918402815096
:10056000809384020F900FBE8F89988D0E949A0D00
:10057000CE010E949A0DD5CF3C1011241FBECFEFA3
:10058000D1E2DEBFCDBF00E00CBF12E0A0E0B2E0E0
:10059000E0E5F3E200E00BBF02C007900D92A23845
:1005A000B107D9F723E0A2E8B2E001C01D92AF3A4B
:1005B000B207E1F712E0CDEBD2E000E006C02197F0
:1005C0000109802FFE010E948E11CC3BD10780E0F3
:1005D0000807A9F70E94B80F0C94A61111CD90E05E
:1005E000FC01EC55FE4F2491825A9E4FFC018491F0
:1005F000882399F090E0880F991FFC01EC5BFE4F77
:10060000A591B491FC01E65DFE4F859194918FB761
:10061000F894EC91E22BEC938FBF0895AF92BF92C8
:10062000CF92DF92EF92FF920F931F93CF93DF93BE
:100630006C017B018B01040F151FEB015E01AE18ED
:10064000BF08C017D10759F06991D601ED91FC910F
:100650000190F081E02DC6011995892B79F7C5012C
:10066000DF91CF911F910F91FF90EF90DF90CF908E
:10067000BF90AF900895FC01538D448D252F30E03D
:10068000842F90E0821B930B541710F0CF9608959F
:1006900001970895FC01918D828D981761F0A28DCC
:1006A000AE0FBF2FB11D5D968C91928D9F5F9F7392
:1006B000928F90E008958FEF9FEF0895FC01918D48
:1006C000828D981731F0828DE80FF11D858D90E0B5
:1006D00008958FEF9FEF0895FC01918D228D892F52
:1006E00090E0805C9F4F821B91098F73992708953A
:1006F0008EE093E0F1DF21E0892B09F420E0822FE6
:100700000895FC01A48DA80FB92FB11DA35ABF4FA6
:100710002C91848D90E001968F739927848FA68900
:10072000B7892C93A089B1898C91837080648C9354
:10073000938D848D981306C00288F389E02D808103
:100740008F7D80830895EF92FF920F931F93CF9335
:10075000DF93EC0181E0888F9B8D8C8D98131AC0FC
:10076000E889F989808185FF15C09FB7F894EE89E3
:10077000FF896083E889F989808183708064808340
:100780009FBF81E090E0DF91CF911F910F91FF908B
:10079000EF900895F62E0B8D10E00F5F1F4F0F7333
:1007A0001127E02E8C8D8E110BC00FB607FCFACFEF
:1007B000E889F989808185FFF5CFCE01A2DFF2CFEC
:1007C000EB8DEC0FFD2FF11DE35AFF4FF0829FB729
:1007D000F8940B8FEA89FB8980818062D0CFCF9318
:1007E000DF93EC01888D8823B1F0AA89BB89E88961
:1007F000F9898C9185FD03C0808186FD0CC00FB600
:1008000007FCF7CF8C9185FFF2CF808185FFEDCF7C
:10081000CE0177DFEACFDF91CF91089580E090E0BD
:10082000892B21F065DF81110E94000080E090E0BB
:10083000892B49F080E090E0892B29F00E9400008C
:1008400081110E94000080E090E0892B49F080E057
:1008500090E0892B29F00E94000081110E94000085
:1008600080E090E0892B49F080E090E0892B29F02E
:100870000E94000081110C9400000895282F30E0A0
:10088000F901EC51FF4F9491F901EC55FE4F449161
:10089000225A3E4FF9012491222309F435C09923AD
:1008A00011F191509231F8F4E92FF0E08827E45AE1
:1008B000FB4F8F4F0C948E118D0491046E048504B0
:1008C0008904730494049A049E04A404A804AC0448
:1008D000B204B6047304BA04C004C4048091800056
:1008E0008F7780938000E22FF0E0EE0FFF1FE65D30
:1008F000FE4FA591B4918FB7F894EC91611148C067
:1009000040954E234C938FBF0895809180008F7D3A
:10091000E8CF80918000877FE4CF84B58F7784BD56
:10092000E2CF84B58F7DFBCF8091B0008F7780932D
:10093000B000D9CF8091B0008F7DF9CF8091900029
:100940008F7780939000CFCF809190008F7DF9CFEB
:1009500080919000877FF5CF8091A0008F77809362
:10096000A000C1CF8091A0008F7DF9CF8091A00021
:10097000877FF5CF809120018F7780932001B3CFBF
:10098000809120018F7DF9CF80912001877FF5CF65
:100990004E2BB8CFE091A202F091A3028081811189
:1009A00007C08FEF9FEF90939F0280939E02089560
:1009B000E091A202F091A3020580F681E02D06806D
:1009C000F781E02D82819381EECFFC010190002020
:1009D000E9F73197AF01481B590BBC018EE093E05A
:1009E0001DCECF93DF9382E392E0EFDFEC0180E353
:1009F00092E0EBDF8C0F9D1FDF91CF91089508EB04
:100A00001BE0C4E0D0E02091060230910702209F55
:100A1000C001219F900D309F900D112424E09695E8
:100A200087952A95E1F7A7D660E08BE027DF60E0A5
:100A30008AE024DF60E089E021DF61E088E01EDFFA
:100A400083E392E0C2DFCDDFD0930702C0930602BA
:100A5000DACF08EB1BE0C4E0D0E060E08BE00EDF13
:100A600060E08AE00BDF61E089E008DF60E088E0B9
:100A700005DF80E492E0A9DFB4DF20910402309129
:100A80000502209FC001219F900D309F900D1124E1
:100A900024E0969587952A95E1F76DD6D0930502C7
:100AA000C0930402DACF08EB1BE0C4E0D0E0209151
:100AB000020230910302209FC001219F900D309FC0
:100AC000900D112424E0969587952A95E1F753D649
:100AD00060E08BE0D3DE61E08AE0D0DE60E089E0B8
:100AE000CDDE60E088E0CADE8EE492E06EDF79DF82
:100AF000D0930302C0930202DACF08EB1BE0C4E0FC
:100B0000D0E02091000230910102209FC001219F7E
:100B1000900D309F900D112424E0969587952A958D
:100B2000E1F729D661E08BE0A9DE60E08AE0A6DE8D
:100B300060E089E0A3DE60E088E0A0DE8BE592E083
:100B400044DF4FDFD0930102C0930002DACFEF926F
:100B5000FF920F93EEE0F3E0A089B18982E08C93DD
:100B6000A485B5851C92A685B7858FEC8C93108ED5
:100B7000A489B58986E08C93A289B3898C91806120
:100B80008C93A289B3898C9188608C93A289B38954
:100B90008C9180688C930288F389E02D80818F7D11
:100BA00080838BE01CDD8AE01ADD89E018DD88E0B7
:100BB00016DDF12CE12C01E02AE132E040E054E0C6
:100BC00065E772E08DE795E0DED726E132E040E0B0
:100BD00054E068E772E083E595E0D5D722E132E0A2
:100BE00040E054E06BE772E089E295E0CCD72EE07C
:100BF00032E040E054E06EE772E08FEF94E0C3D75C
:100C00000F91FF90EF900C94D70E1F920F920FB69A
:100C10000F9211242F933F938F939F93AF93BF9382
:100C20008091DE029091DF02A091E002B091E1029A
:100C30003091DD0223E0230F2D3758F50196A11DD9
:100C4000B11D2093DD028093DE029093DF02A0931A
:100C5000E002B093E1028091D9029091DA02A09172
:100C6000DB02B091DC020196A11DB11D8093D90277
:100C70009093DA02A093DB02B093DC02BF91AF91B4
:100C80009F918F913F912F910F900FBE0F901F90CA
:100C9000189526E8230F0296A11DB11DD2CF1F92F1
:100CA0000F920FB60F9211240BB60F922F933F9312
:100CB0004F935F936F937F938F939F93AF93BF9364
:100CC000EF93FF938EE093E01CDDFF91EF91BF91D6
:100CD000AF919F918F917F916F915F914F913F91D4
:100CE0002F910F900BBE0F900FBE0F901F90189575
:100CF0001F920F920FB60F9211240BB60F922F93E3
:100D00008F939F93EF93FF93E0911E03F0911F0346
:100D10008081E0912403F091250382FD1DC0908124
:100D2000809127038F5F8F7320912803821741F0F2
:100D3000E0912703F0E0E25FFC4F958F809327035B
:100D4000FF91EF919F918F912F910F900BBE0F907C
:100D50000FBE0F901F9018958081F2CFFC01DB0130
:100D60000FB6F8940F924091E6025091E7022D9150
:100D70003C9111972F3F3207E1F081819281609180
:100D8000E8027081761719F048175907C0F4481B1C
:100D9000590B4217530788F4241B350B2D933C93B2
:100DA0008091E80280838091E6029091E70292832D
:100DB000818380E00F900FBE08951D921C9281E008
:100DC000F9CF0FB6F8940F928091E6029091E70266
:100DD0000F900FBE08958091E2028F5F8093E20230
:100DE00008950FB6F8940F92FC01928D0F900FBEEC
:100DF00081E0911180E00895CF93DF939C01FB0186
:100E0000DC011196CD91DC91D383C2838C819D81CD
:100E1000958384838C819D81DC0113967C936E93F2
:100E200012977D836C8331872087F90180818F5FE2
:100E30008083DF91CF910895CF93DF93FC01A0854C
:100E4000B1858281938124813581EC013D832C839E
:100E5000C481D5819B838A8311968D919C91129731
:100E60008E179F0721F41296DC93CE93119711866B
:100E700010868C9181508C938C91DF91CF91089545
:100E80000F931F93CF93DF93DC011596ED91FC91A7
:100E9000C681D7818E01045F1F4FC801CDDF8091CD
:100EA000E202811123C00A501109C801C5DF8E89F1
:100EB00090910D03981710F480930D03B9E08B9F68
:100EC000C0011124B80187519D4F96DFE091820245
:100ED000F09183029E898689891760F481E080936E
:100EE0009D02DF91CF911F910F910895B80186EB7C
:100EF00092E0EBCF80E0F5CFEF92FF920F931F933C
:100F0000CF93DF93EC010FB6F8940F921E8D7C0106
:100F100081E1E80EF11C01E01116D4F08FEF8E8F05
:100F20000F900FBE0FB6F8940F921D8D7E0188E0D2
:100F3000E80EF11C01E01116ACF08FEF8D8F0F90D1
:100F40000FBEDF91CF911F910F91FF90EF90089509
:100F50008989882319F3C70193DF811100939D02CA
:100F60001150DACF8885882341F3C70189DF8111C9
:100F700000939D021150DFCF0F931F93CF93DF9308
:100F80008C01FB0180819181D80113968F3F9807D6
:100F9000F1F4E801AF81B88512968D919C91139779
:100FA00093838283EC01FD83EC83B583A483139642
:100FB000FC93EE93129711870087F80180818F5F71
:100FC0008083DF91CF911F910F910895D9011296DF
:100FD0002D913C911397E901488159818417950718
:100FE000A8F7DACFFC017383628391878087461765
:100FF000570788F0421B530B84859585481759077E
:10100000C0F4BF016E5F7F4F8091D5029091D602F0
:10101000B3DF80E008954217530718F4621773078F
:1010200040F4BF016E5F7F4F8091D7029091D8024C
:10103000EFCF81E00895FF920F931F93CF93DF933B
:10104000EC01F62E0091E6021091E70280918202F7
:10105000909183020296F0DECF3FDC0781F4FF20FF
:1010600071F060918202709183026E5F7F4F84EA1B
:1010700092E0DF91CF911F910F91FF90BDCEC00FF5
:10108000D11FE0918202F0918302D383C2836091E9
:10109000820270918302C017D10760F48091A00290
:1010A0009091A1026E5F7F4FDF91CF911F910F91C1
:1010B000FF9062CF8091A2029091A3026E5F7F4F5A
:1010C0005BDF80919E0290919F02C817D90720F4A0
:1010D000D0939F02C0939E02DF91CF911F910F91F9
:1010E000FF900895FC010396928381832FEF3FEFD9
:1010F0003483238396838583908787831082089522
:101100000F920FB6F8940F920BB60F920CB60F9287
:101110001F9211242F923F924F925F926F927F9273
:101120008F929F92AF92BF92CF92DF92EF92FF92F7
:101130000F931F932F933F934F935F936F937F93DF
:101140008F939F93AF93BF93CF93DF93EF93FF93CF
:10115000A0918202B09183020DB60D920EB60D924F
:101160008091E202882321F081E080939D025FC09C
:1011700010929D02A0918202B0918302E0918202BE
:10118000F09183022D913C918789908D821793076E
:10119000A8F08091820290918302809182029091C6
:1011A0008302279A2F9A2FEF87EA91E621508040F9
:1011B0009040E1F700C000001F9AF5CF20910D0389
:1011C00089E001C02150422F50E0849FF001859FAB
:1011D000F00D1124E751FD4F9081992399F3A181DE
:1011E000B28112960D90BC91A02DB283A183289F4D
:1011F000C001112484519D4FA817B90729F41296F4
:101200008D919C919283818389E0849FF001859FD9
:10121000F00D1124E751FD4F0180F281E02D868110
:101220009781909383028093820220930D03A09173
:101230008202B0918302CD91CDBFDD91DEBFFF91DF
:10124000EF91DF91CF91BF91AF919F918F917F915E
:101250006F915F914F913F912F911F910F91FF904F
:10126000EF90DF90CF90BF90AF909F908F907F9046
:101270006F905F904F903F902F901F900F900CBEFB
:101280000F900BBE0F900FBE0F9008957F928F921C
:101290009F92AF92BF92CF92DF92EF92FF920F9305
:1012A0001F93CF93DF930FB6F8940F928091E202D1
:1012B00081508093E2028091E202882389F080E0ED
:1012C0000F900FBEDF91CF911F910F91FF90EF9084
:1012D000DF90CF90BF90AF909F908F907F900895B8
:1012E0008091D202882359F3D0E0C0E029E0F22EA9
:1012F000EE24E39426C0E091BB02F091BC02C681CB
:10130000D781CE010C9698DD8E010E5F1F4FC8016C
:1013100093DD8E8990910D03981710F480930D033F
:101320008F9DC0011124B80187519D4F65DDE0916B
:101330008202F09183029E898689981710F0E092CC
:101340009D028091B6028111D6CFCD2B09F022DB10
:10135000E0909B02F0909C02E114F10409F4ABC010
:1013600089E0A82E77247394CC24CA94DC2C809135
:10137000E20281118EC0C091E602D091E70221966F
:10138000D093E702C093E6022097B1F48091A202C5
:101390009091A3022091A0023091A1023093A30268
:1013A0002093A2029093A1028093A0028091E80270
:1013B0008F5F8093E802EEDA80919E0290919F0207
:1013C000B12CC817D90708F058C0E0918202F091FB
:1013D0008302E689AE9EF0011124E751FD4F808122
:1013E000823010F0BB24B39480919D02811103C020
:1013F000BB2009F457C070929D0254C0E091A20234
:10140000F091A3020580F681E02D06811781D801B5
:1014100012968D919C91C817D90728F490939F023A
:1014200080939E02D2CF4801B2E08B0E911CC40182
:1014300003DDF80184899589892B19F0C8010C9680
:10144000FBDCD80156968C9190910D03981710F4FF
:1014500080930D038A9DC0011124B40187519D4FD3
:10146000CBDCE0918202F0918302D80156969C91E8
:101470008689981710F0BB24B394E091A202F091F2
:10148000A30280818111BACFD0929F02C0929E02A6
:101490009CCF80919B0290919C02019690939C021C
:1014A00080939B02B1E0EB1AF10809F060CF109233
:1014B0009C0210929B0280919D02882309F4FFCE2A
:1014C0001FDE81E0FDCEAF92BF92CF92DF92EF920E
:1014D000FF920F931F93CF93DF9300D01F921F9221
:1014E000CDB7DEB78C017B011D821C8280E06801D4
:1014F00028E0C20ED11C0FB6F8940F92F801228D8D
:10150000938D291708F073C0D28C448D411156C0B9
:1015100080819181892B11F080E009C0E480F58001
:10152000E114F10411F580E0F80115821482D394DE
:10153000F801D28E9189992319F0C8014196A0DC57
:101540008111DEDD0F900FBE81E00F900F900F90A4
:101550000F900F90DF91CF911F910F91FF90EF901F
:10156000DF90CF90BF90AF900895F70182A1815096
:1015700082A3268991A12917B1F28111D4CF5701F5
:10158000F2E0AF0EB11CC50157DCF70181A1868BDB
:1015900024E030E0281B31093587248790910D0322
:1015A000981710F480930D03F9E08F9FC001112468
:1015B000B50187519D4F20DC81E0B6CF50E0B701E7
:1015C00082819381B3D6F801848D22813381820F89
:1015D000932F911D938382832481358182179307F2
:1015E00008F49ACF808191819383828395CF2C8157
:1015F0003D81232B21F40F900FBE80E0A6CF8111F7
:1016000009C08091E80289838091E6029091E70207
:101610009B838A830F900FBEDEDB0FB6F8940F9288
:10162000F801858D8F3F09F4158EF801868D8F3F67
:1016300009F4168E0F900FBEBE016C5F7F4FCE0176
:1016400001968CDB811123C00FB6F8940F92F8013C
:10165000928D838D0F900FBE981315C0AC80BD8006
:101660006091820270918302645F7F4FC60184DCC7
:1016700061E0C501E0DCC8013FDC08DE811101C08A
:101680003FDD81E038CFC80137DC00DEFACFC8018A
:1016900033DCFCDDB2CFCF93DF9300D01F921F92DB
:1016A000CDB7DEB79C018091E4029091E5020097EE
:1016B000B1F019827B836A833D832C832091E302FE
:1016C000BE016F5F7F4F21112091E202FCDE0F907F
:1016D0000F900F900F900F90DF91CF91089580E0C1
:1016E000F6CFEF92FF920F931F93CF93DF93E0918A
:1016F000D702F091D8028081811113C08091D50268
:101700009091D6029093D8028093D702F093D6029C
:10171000E093D502DF91CF911F910F91FF90EF9051
:1017200008950580F681E02D00811181C681D78161
:101730007E0182E0E80EF11CC7017EDBE889F989B1
:10174000CE0119958A8982FFD2CF8C859D85800F25
:10175000911F0817190758F49B838A83D987C88774
:10176000B7018091D7029091D80206DCC0CFB801B2
:10177000CE0191DFBCCFCF93DF93EC01892B21F415
:10178000BFDCDF91CF91089526DB60E0CE0153DC12
:101790007DDD8823A9F3F5CF0F920FB6F8940F9251
:1017A0000BB60F920CB60F921F9211242F923F92FC
:1017B0004F925F926F927F928F929F92AF92BF9261
:1017C000CF92DF92EF92FF920F931F932F933F934D
:1017D0004F935F936F937F938F939F93AF93BF9339
:1017E000CF93DF93EF93FF93A0918202B091830296
:1017F0000DB60D920EB60D9213BE8091E2028111CC
:10180000F6C08091E6029091E70201969093E7027C
:101810008093E602009799F52091A2023091A302ED
:101820004091A0025091A1025093A3024093A202C2
:101830003093A1022093A0022091E8022F5F209311
:10184000E802E091A202F091A3022081211107C0D9
:101850002FEF3FEF30939F0220939E0210C0E09144
:10186000A202F091A3020580F681E02D0680F781A7
:10187000E02D2281338130939F0220939E0220919C
:101880009E0230919F028217930710F420E09BC0C4
:1018900020E019E0E091A202F091A3023081311121
:1018A00007C08FEF9FEF90939F0280939E028BC0A3
:1018B000E091A202F091A3020580F681E02D06805E
:1018C000F781E02D428153818417950728F45093C6
:1018D0009F0240939E0277C0AF014E5F5F4FA2858B
:1018E000B38564817581E680F780EB01FD82EC822F
:1018F000C681D7817B836A8311966D917C91129703
:101900004617570721F41296DC93CE93119713864E
:1019100012863C9131503C933C91A489B589109733
:10192000F9F066857785E088F188EB01FD82EC822D
:10193000C089D1897B836A831196ED90FC901297C0
:10194000BF01645F7F4FE616F70621F41296DC9321
:10195000CE931197158A148A3C9131503C933C9157
:10196000A68930910D033A1710F4A0930D031A9F26
:10197000D0011124BD0167517D4F7B01DB01119620
:10198000CD91DC91D583C4836C817D81778366831F
:101990006C817D81DB0113965C934E9312975D837E
:1019A0004C83F386E286E70138813F5F3883A0915C
:1019B0008202B0918302468956963C91431708F4FF
:1019C00069CF21E067CFE0918202F0918302E6893E
:1019D000D9E0ED9FF0011124E751FD4F8081823065
:1019E00008F021E080919D0281110EC00AC0809113
:1019F0009B0290919C02019690939C0280939B0283
:101A00006AC0222309F467C08091E202882321F092
:101A100081E080939D025FC010929D02A09182029E
:101A2000B0918302E0918202F09183022D913C916A
:101A30008789908D82179307A8F0809182029091F8
:101A400083028091820290918302279A2F9A2FEF2E
:101A500067EA71E6215060407040E1F700C0000085
:101A60001F9AF5CF20910D0389E001C02150422F2C
:101A700050E0849FF001859FF00D1124E751FD4F48
:101A80009081992399F3A181B28112960D90BC9116
:101A9000A02DB283A183289FC001112484519D4FA2
:101AA000A817B90729F412968D919C91928381838E
:101AB00089E0849FF001859FF00D1124E751FD4FCF
:101AC0000180F281E02D868197819093830280933B
:101AD000820220930D03A0918202B0918302CD91E6
:101AE000CDBFDD91DEBFFF91EF91DF91CF91BF912F
:101AF000AF919F918F917F916F915F914F913F91A6
:101B00002F911F910F91FF90EF90DF90CF90BF909A
:101B1000AF909F908F907F906F905F904F903F908D
:101B20002F901F900F900CBE0F900BBE0F900FBE0A
:101B30000F900895CF93DF93009739F0EC014BD9C4
:101B4000CE0163D3DF91CF91A1CBDF91CF910895E7
:101B5000CF93DF93EC013FD9CE01BBD2EC0196DBF2
:101B6000209769F4279A2F9A2FEF80E792E021506F
:101B700080409040E1F700C000001F9AF5CFCE01F1
:101B8000DF91CF9108955F926F927F928F929F9293
:101B9000AF92BF92CF92DF92EF92FF920F931F937B
:101BA000CF93DF93782E192F562E672E6A014901A5
:101BB000CA01CEDF5C01892B09F4D6C08AE290E02D
:101BC000C7DFEC01892B09F4CDC0B88EAF8AA6011E
:101BD00065EA70E0C501B3D321E0C21AD108EF89EC
:101BE000F88DEC0DFD1D652D762DCE0149969B01DE
:101BF000285F3F4FDB014D91BD01DC014D93CD01CD
:101C0000AB0141505109DA014C91442319F062179C
:101C1000730781F718A20E8B09A31AA21B861A86D6
:101C20001D8A1C8AD987C88784E090E0801B9109AF
:101C30009D878C87DB8BCA8B1BA21CA21DA21EA2B8
:101C40001FA27082DF0111971C9311971C921197AC
:101C50001C92119780E88C9311971C9211971C92FB
:101C600011971C9257978C9211979C92B697F98373
:101C7000E883F4018081918199A788A7E114F10498
:101C800019F0D701CD93DC930FB6F8940F928091A1
:101C9000D2028F5F8093D202809182029091830260
:101CA000892B09F072C0D0938302C0938202809185
:101CB000D202813039F589EE92E014DA82EF92E0B7
:101CC00011DA8BEF92E00EDA84E093E00BDA88EC25
:101CD00092E008DA8FEB92E005DA86EB92E002DA26
:101CE0008DEA92E0FFD984EA92E0FCD988EC92E098
:101CF0009093A3028093A2028FEB92E09093A102B3
:101D00008093A0028091D1028F5F8093D1021E89BF
:101D100080910D03811710F410930D03E885F98568
:101D2000E0A4F1A44ED88E0D9F1D9B838A83B9E059
:101D30001B9FC0011124BE016E5F7F4F87519D4FD5
:101D40001BD90F900FBE8091E302882349F0E091E8
:101D50008202F091830296898E89981708F4D0D96F
:101D600081E003C0C501E6DE8FEFDF91CF911F91C7
:101D70000F91FF90EF90DF90CF90BF90AF909F902A
:101D80008F907F906F905F9008958091E302811112
:101D9000B9CFE0918202F091830296898E898917EA
:101DA00008F4B0CFD0938302C0938202ABCFEF92FE
:101DB000FF920F931F93CF93DF931F921F92CDB784
:101DC000DEB784E690E09A83898399E9E92E92E070
:101DD000F92E00E09E012F5F3F4F40EC50E068E697
:101DE00072E081E992E0CFDE813009F0B6C00FB633
:101DF000F8940F928091E4029091E502892B09F00A
:101E00004BC08EE892E06ED985E892E06BD98EE8FF
:101E100092E09093D8028093D70285E892E0909365
:101E2000D6028093D50281E590E092DE8C01009786
:101E300079F14F96F801918380838AE0838F85E062
:101E4000848F0FB6F8940F9280819181238D448DF9
:101E5000BC01249F600D711D112475836483128E53
:101E6000938382832150330B429FB001439F700DB7
:101E70001124860F971F978386838FEF858F868F18
:101E8000C80108962FD9C80141962CD90F900FBED2
:101E90001093E5020093E4020F900FBE8091E402DC
:101EA0009091E502892B09F458C087E9E82E82E079
:101EB000F82E03E030E020E045E550E06DE672E00A
:101EC00085EF90E060DE813009F047C0F8942FEF95
:101ED0003FEF30939F0220939E028093E302109283
:101EE000E7021092E602A89588E190EC0FB6F8940C
:101EF000A895809360000FBE90936000A09182022D
:101F0000B0918302CD91CDBFDD91DEBFFF91EF9106
:101F1000DF91CF91BF91AF919F918F917F916F9101
:101F20005F914F913F912F911F910F91FF90EF90F3
:101F3000DF90CF90BF90AF909F908F907F906F90E9
:101F40005F904F903F902F901F900F900CBE0F907E
:101F50000BBE0F900FBE0F9008950F900F90DF9162
:101F6000CF911F910F91FF90EF90089515DC189578
:101F7000789484B5826084BD84B5816084BD85B564
:101F8000826085BD85B5816085BD80916E00816070
:101F900080936E0010928100809181008260809316
:101FA0008100809181008160809381008091800018
:101FB0008160809380008091B10084608093B10043
:101FC0008091B00081608093B00080919100826028
:101FD0008093910080919100816080939100809125
:101FE00090008160809390008091A1008260809336
:101FF000A1008091A10081608093A1008091A00048
:1020000081608093A00080912101826080932101F2
:102010008091210181608093210180912001816064
:102020008093200180917A00846080937A0080916F
:102030007A00826080937A0080917A008160809338
:102040007A0080917A00806880937A001092C100B3
:1020500020910C0230910D028FEF91E2821B930BC5
:1020600090930902809308020E94A705A0DE0E94B7
:10207000A7050E940E04FDCFEEE0F3E0138212826A
:1020800088EE93E0A0E0B0E084839583A683B783D5
:1020900082E292E09183808385EC90E0958784874B
:1020A00084EC90E09787868780EC90E0918B808B22
:1020B00081EC90E0938B828B82EC90E0958B848B0B
:1020C00086EC90E0978B868B118E128E138E148E79
:1020D00008950F931F93CF93DF938230910510F4EF
:1020E00082E090E0E091AD03F091AE0330E020E0BB
:1020F000B0E0A0E0309799F42115310509F44AC009
:10210000281B390B24303105D8F58A819B81611554
:10211000710589F1FB0193838283FE0111C0408127
:1021200051810281138148175907E0F04817590778
:1021300099F4109761F012960C93129713961C93D2
:102140003296CF01DF91CF911F910F9108950093A7
:10215000AD031093AE03F4CF2115310551F04217B2
:10216000530738F0A901DB019A01BD01DF01F80135
:10217000C1CFEF01F9CF9093AE038093AD03CDCFE4
:10218000FE01E20FF31F81939193225031093983AD
:102190002883D7CF2091AB033091AC03232B41F49C
:1021A00020910A0230910B023093AC032093AB03D1
:1021B00020910802309109022115310541F42DB713
:1021C0003EB740910C0250910D02241B350BE0915B
:1021D000AB03F091AC03E217F307A0F42E1B3F0B07
:1021E0002817390778F0AC014E5F5F4F2417350789
:1021F00048F04E0F5F1F5093AC034093AB038193A5
:1022000091939FCFF0E0E0E09CCFCF93DF930097D6
:10221000E9F0FC01329713821282A091AD03B091D4
:10222000AE03ED0130E020E01097A1F42081318170
:10223000820F931F2091AB033091AC03281739070D
:1022400009F061C0F093AC03E093AB03DF91CF9151
:102250000895EA01CE17DF07E8F54A815B819E0108
:1022600041155105B1F7E901FB83EA834991599181
:10227000C40FD51FEC17FD0761F480819181029690
:10228000840F951FE90199838883828193819B83C1
:102290008A83F0E0E0E012968D919C91139700976D
:1022A000B9F52D913C911197CD010296820F931FA4
:1022B0002091AB033091AC032817390739F63097DA
:1022C00051F51092AE031092AD03B093AC03A093FE
:1022D000AB03BCCFD383C28340815181840F951F50
:1022E000C817D90761F44E5F5F4F88819981480F05
:1022F000591F518340838A819B8193838283211557
:10230000310509F0B0CFF093AE03E093AD039ECF5B
:10231000FD01DC01C0CF13821282D7CFEE0FFF1F69
:10232000881F8BBF0790F691E02D1994FB01DC010B
:1023300002C001900D9241505040D8F70895DC0141
:1023400001C06D9341505040E0F70895F894FFCFDD
:1023500002000100040003000000AF038000280019
:1023600000000A000000140000001E000000000031
:102370000000A3030E033B03EF036C034A035E0359
:102380000D0A00543420657865637574696E6700C2
:10239000543320457865637574696E670A0054325A
:1023A00020657865637574696E67005431204578DF
:1023B00065637574696E670049444C4500546D72DD
:1023C00020537663005431005432005433005434A7
:0223D00000000B
:00000001FF
