:10000000BCC20000EBC20000E9C20000E7C2000071
:10001000E5C20000E3C20000E1C20000DFC2000050
:10002000DDC20000DBC20000D9C20000D7C2000060
:100030000C94660FD3C20000D1C20000CFC20000F2
:10004000CDC20000CBC20000C9C20000C7C2000080
:10005000C5C20000C3C20000C1C20000B7C5000095
:10006000BDC2000026C60000FBC50000B7C20000EC
:10007000B5C20000B3C20000B1C20000AFC20000B0
:10008000ADC20000ABC20000A9C20000A7C20000C0
:10009000A5C20000A3C20000A1C200009FC20000D0
:1000A0009DC200009BC2000099C2000097C20000E0
:1000B00095C2000093C2000091C200008FC20000F0
:1000C0008DC200008BC2000089C2000087C2000000
:1000D00085C2000083C2000081C200007FC2000010
:1000E0007DC2000000000A0B02090C0D0E08070378
:1000F00004010000000000000000000000000000FB
:1001000000000000000000000000000000000000EF
:1001100012111000000000000000000000000000AC
:100120000000000000000000000000002200250088
:1001300028002B002E0031003400020100000501D0
:1001400008010B0100002100240027002A002D00D7
:100150003000330001010000040107010A01050518
:100160000505070508080808020202020A0A08082D
:10017000040404040101010101010101030303035B
:1001800003030303040707070C0C0C0C0C0C0C0CEA
:100190000202020206060606060606060B0B0B0BFB
:1001A0000B0B0B0B01021020200808102040102020
:1001B000408002010201080402010102040810202B
:1001C0004080804020100804020180040201804029
:1001D0002010080402010804020101020408102092
:1001E00040800102040810204080CF93DF9300D0AC
:1001F00000D000D01F92CDB7DEB7E0919202F0910F
:100200009302F08010E000E0FF2029F00580F681E5
:10021000E02D00811181C0D5B5D56C0180918E0291
:1002200090918F02C816D90608F07AC00E94520B2E
:10023000D0928F02C0928E020E94270900919E02E6
:1002400010919F021A86198680E06801B1E1CB0EF9
:10025000D11C0FB6F8940F92F801F28CFF2009F42C
:100260000CC1448D4423C1F050E086819781840FF6
:10027000951F97838683248135818217930720F009
:100280008081918197838683D80116966D917C91A8
:10029000CE0101960E944611FA94F801F28E8085F3
:1002A000882329F0C8010896CCD581110AD70F9070
:1002B0000FBED980D7FCC2CF0C811D81D8011A9600
:1002C0008D919C91892B19F0C801029696D55AD52B
:1002D0007C0180918E0290918F02E816F90610F44D
:1002E0000E94520BF0928F02E0928E02B9E0BD158F
:1002F00008F4A4CFED2DDD0CFF0BD80152969C9194
:100300008827EA57FE4F8F4F0C943E1102020202DB
:1003100002023802240232020202020238022402DD
:10032000D0928F02C0928E02FF2081F1C016D106BA
:10033000A8F18DD7E0919202F09193020580F681A9
:10034000E02DE680F780C701029657D5D701529677
:100350008C91529782FF16C01C966D917C91600F14
:10036000711F9801A601C7011ED6882321F0B8018C
:10037000C7010E942C0BD7015096ED91FC91C7014B
:1003800019955CCF8E7FF701828BF5CFE0919002BB
:10039000F09191028081BB24B3948111B12CE09043
:1003A0009E02F0909F020FB6F8940F92F701858D90
:1003B0008F3F09F4158ED7015E968C915E978F3F23
:1003C00011F45E961C920F900FBEF701828D811181
:1003D00012C06091700270917102645F7F4FC7011B
:1003E0004196EBD4C8018C199D09BB2011F08FEF09
:1003F0009FEF6B2D01D6C70160D529D781111ECF84
:1004000060D61CCF9160F801928BCA80DB80648536
:1004100075856C0D7D1D9601A701C801C4D5882383
:1004200009F40CCFD8015096ED91FC91C8011995B3
:10043000F801828982FF02CF648575856C0D7D1D70
:10044000C8010E942C0BFACE9160F801928B6A8150
:100450007B81758764876E0D7F1D9701A701C80199
:10046000A2D5ECCE91FD04C0C8010E947B0DE6CE62
:100470009E7FD80152969C93E1CE29853A85232B05
:1004800019F40F900FBEB9CE811109C08091A2025C
:100490008E838091A0029091A10298878F830F9004
:1004A0000FBE7AD40FB6F8940F92D8015D968C9156
:1004B0005D978F3F11F45D961C92F801868D8F3FFA
:1004C00009F4168E0F900FBEBE01675F7F4FCE01FD
:1004D000069625D481111DC0C80164D48823A9F0D3
:1004E000E984FA846091700270917102645F7F4FB9
:1004F000C60123D561E0C7017FD5C801DED4A7D6E8
:10050000811101C0DED581E0A4CEC801D6D49FD62A
:10051000FACFC801D2D49BD6C80144D4882399F31A
:100520006CCE80917202811107C08091D40282301A
:1005300008F0C7D573D1F5CF0FB6F8940F92E091BC
:10054000B502F091B602C681D781CE01029655D48C
:1005500080910D03815080930D0380917202815030
:10056000809372020F900FBE8F89988D0E947B0D31
:10057000CE010E947B0DD5CFEC0F11241FBECFEF13
:10058000D1E2DEBFCDBF00E00CBF12E0A0E0B2E0E0
:10059000E0EBF2E200E00BBF02C007900D92A03743
:1005A000B107D9F723E0A0E7B2E001C01D92AF3A4E
:1005B000B207E1F712E0CDEBD2E000E006C02197F0
:1005C0000109802FFE010E943E11CC3BD10780E043
:1005D0000807A9F70E94680F0C94561111CD90E0FE
:1005E000FC01EC55FE4F2491825A9E4FFC018491F0
:1005F000882399F090E0880F991FFC01EC5BFE4F77
:10060000A591B491FC01E65DFE4F859194918FB761
:10061000F894EC91E22BEC938FBF0895AF92BF92C8
:10062000CF92DF92EF92FF920F931F93CF93DF93BE
:100630006C017B018B01040F151FEB015E01AE18ED
:10064000BF08C017D10759F06991D601ED91FC910F
:100650000190F081E02DC6011995892B79F7C5012C
:10066000DF91CF911F910F91FF90EF90DF90CF908E
:10067000BF90AF900895FC01538D448D252F30E03D
:10068000842F90E0821B930B541710F0CF9608959F
:1006900001970895FC01918D828D981761F0A28DCC
:1006A000AE0FBF2FB11D5D968C91928D9F5F9F7392
:1006B000928F90E008958FEF9FEF0895FC01918D48
:1006C000828D981731F0828DE80FF11D858D90E0B5
:1006D00008958FEF9FEF0895FC01918D228D892F52
:1006E00090E0805C9F4F821B91098F73992708953A
:1006F0008EE093E0F1DF21E0892B09F420E0822FE6
:100700000895FC01A48DA80FB92FB11DA35ABF4FA6
:100710002C91848D90E001968F739927848FA68900
:10072000B7892C93A089B1898C91837080648C9354
:10073000938D848D981306C00288F389E02D808103
:100740008F7D80830895EF92FF920F931F93CF9335
:10075000DF93EC0181E0888F9B8D8C8D98131AC0FC
:10076000E889F989808185FF15C09FB7F894EE89E3
:10077000FF896083E889F989808183708064808340
:100780009FBF81E090E0DF91CF911F910F91FF908B
:10079000EF900895F62E0B8D10E00F5F1F4F0F7333
:1007A0001127E02E8C8D8E110BC00FB607FCFACFEF
:1007B000E889F989808185FFF5CFCE01A2DFF2CFEC
:1007C000EB8DEC0FFD2FF11DE35AFF4FF0829FB729
:1007D000F8940B8FEA89FB8980818062D0CFCF9318
:1007E000DF93EC01888D8823B1F0AA89BB89E88961
:1007F000F9898C9185FD03C0808186FD0CC00FB600
:1008000007FCF7CF8C9185FFF2CF808185FFEDCF7C
:10081000CE0177DFEACFDF91CF91089580E090E0BD
:10082000892B21F065DF81110E94000080E090E0BB
:10083000892B49F080E090E0892B29F00E9400008C
:1008400081110E94000080E090E0892B49F080E057
:1008500090E0892B29F00E94000081110E94000085
:1008600080E090E0892B49F080E090E0892B29F02E
:100870000E94000081110C9400000895282F30E0A0
:10088000F901EC51FF4F9491F901EC55FE4F449161
:10089000225A3E4FF9012491222309F435C09923AD
:1008A00011F191509231F8F4E92FF0E08827E45AE1
:1008B000FB4F8F4F0C943E118D0491046E04850400
:1008C0008904730494049A049E04A404A804AC0448
:1008D000B204B6047304BA04C004C4048091800056
:1008E0008F7780938000E22FF0E0EE0FFF1FE65D30
:1008F000FE4FA591B4918FB7F894EC91611148C067
:1009000040954E234C938FBF0895809180008F7D3A
:10091000E8CF80918000877FE4CF84B58F7784BD56
:10092000E2CF84B58F7DFBCF8091B0008F7780932D
:10093000B000D9CF8091B0008F7DF9CF8091900029
:100940008F7780939000CFCF809190008F7DF9CFEB
:1009500080919000877FF5CF8091A0008F77809362
:10096000A000C1CF8091A0008F7DF9CF8091A00021
:10097000877FF5CF809120018F7780932001B3CFBF
:10098000809120018F7DF9CF80912001877FF5CF65
:100990004E2BB8CFE091A502F091A6028081811183
:1009A00007C08FEF9FEF90938D0280938C02089584
:1009B000E091A502F091A6020580F681E02D068067
:1009C000F781E02D82819381EECFFC010190002020
:1009D000E9F73197AF01481B590BBC018EE093E05A
:1009E0001DCECF93DF9380E292E0EFDFEC018EE14A
:1009F00092E0EBDF8C0F9D1FDF91CF91089508EB04
:100A00001BE0C4E0D0E02091040230910502209F59
:100A1000C001219F900D309F900D112424E09695E8
:100A200087952A95E1F788D660E08BE027DF60E0C4
:100A30008AE024DF60E089E021DF61E088E01EDFFA
:100A400081E292E0C2DFCDDFD0930502C0930402C1
:100A5000DACF08EB1BE0C4E0D0E020910202309135
:100A60000302209FC001219F900D309F900D112403
:100A700024E0969587952A95E1F75ED660E08BE0B5
:100A8000FDDE60E08AE0FADE61E089E0F7DE60E04A
:100A900088E0F4DE8EE292E098DFA3DFD0930302D9
:100AA000C0930202DACF08EB1BE0C4E0D0E0209153
:100AB000000230910102209FC001219F900D309FC4
:100AC000900D112424E0969587952A95E1F734D668
:100AD00060E08BE0D3DE61E08AE0D0DE60E089E0B8
:100AE000CDDE60E088E0CADE8CE392E06EDF79DF85
:100AF000D0930102C0930002DACF61E08BE0BEDE4A
:100B000060E08AE0BBDE60E089E0B8DE60E088E0BB
:100B1000B5DE89E492E059DF64DF8EEE92E00CD618
:100B2000ECCFEEE0F3E0A089B18982E08C93A4855C
:100B3000B5851C92A685B7858FEC8C93108EA48901
:100B4000B58986E08C93A289B3898C9180618C935E
:100B5000A289B3898C9188608C93A289B3898C9186
:100B600080688C930288F389E02D80818F7D80835B
:100B70008BE035DD8AE033DD89E031DD88E02FDD93
:100B800030E020E040E054E063E672E08DE795E07D
:100B9000DBD730E020E040E054E066E672E083E539
:100BA00095E0D2D730E020E040E054E069E672E022
:100BB00089E295E0C9D730E020E040E054E06CE6FF
:100BC00072E08FEF94E0C0D70C94A50E1F920F92A5
:100BD0000FB60F9211242F933F938F939F93AF9350
:100BE000BF938091990290919A02A0919B02B0913B
:100BF0009C023091980223E0230F2D3758F501967F
:100C0000A11DB11D209398028093990290939A029E
:100C1000A0939B02B0939C028091940290919502C4
:100C2000A0919602B09197020196A11DB11D8093EB
:100C3000940290939502A0939602B0939702BF916D
:100C4000AF919F918F913F912F910F900FBE0F9079
:100C50001F90189526E8230F0296A11DB11DD2CF33
:100C60001F920F920FB60F9211240BB60F922F9373
:100C70003F934F935F936F937F938F939F93AF9324
:100C8000BF93EF93FF938EE093E03BDDFF91EF91F5
:100C9000BF91AF919F918F917F916F915F914F9194
:100CA0003F912F910F900BBE0F900FBE0F901F9092
:100CB00018951F920F920FB60F9211240BB60F9238
:100CC0002F938F939F93EF93FF93E0911E03F091E7
:100CD0001F038081E0912403F091250382FD1DC054
:100CE0009081809127038F5F8F7320912803821753
:100CF00041F0E0912703F0E0E25FFC4F958F809395
:100D00002703FF91EF919F918F912F910F900BBE31
:100D10000F900FBE0F901F9018958081F2CFFC01AD
:100D2000DB010FB6F8940F924091A0025091A102FE
:100D30002D913C9111972F3F3207E1F081819281F3
:100D40006091A2027081761719F048175907C0F414
:100D5000481B590B4217530788F4241B350B2D935E
:100D60003C938091A20280838091A0029091A10285
:100D70009283818380E00F900FBE08951D921C9294
:100D800081E0F9CF0FB6F8940F928091A002909174
:100D9000A1020F900FBE089580919D028F5F8093F6
:100DA0009D0208950FB6F8940F92FC01928D0F905A
:100DB0000FBE81E0911180E00895CF93DF939C01F5
:100DC000FB01DC011196CD91DC91D383C2838C8130
:100DD0009D81958384838C819D81DC0113967C9316
:100DE0006E9312977D836C8331872087F901808110
:100DF0008F5F8083DF91CF910895CF93DF93FC01C4
:100E0000A085B1858281938124813581EC013D8368
:100E10002C83C481D5819B838A8311968D919C916B
:100E200012978E179F0721F41296DC93CE93119799
:100E3000118610868C9181508C938C91DF91CF918B
:100E400008950F931F93CF93DF93DC011596ED91D7
:100E5000FC91C681D7818E01045F1F4FC801CDDF91
:100E600080919D02811123C00A501109C801C5DF7C
:100E70008E8990910A03981710F480930A03B9E0C1
:100E80008B9FC0011124B8018C529D4F96DFE091D9
:100E90007002F09171029E898689891760F481E061
:100EA00080938B02DF91CF911F910F910895B8012C
:100EB00089EB92E0EBCF80E0F5CFEF92FF920F93BA
:100EC0001F93CF93DF93EC010FB6F8940F921E8D12
:100ED0007C0181E1E80EF11C01E01116D4F08FEFE6
:100EE0008E8F0F900FBE0FB6F8940F921D8D7E015E
:100EF00088E0E80EF11C01E01116ACF08FEF8D8F49
:100F00000F900FBEDF91CF911F910F91FF90EF9047
:100F100008958989882319F3C70193DF811100930C
:100F20008B021150DACF8885882341F3C70189DF0E
:100F3000811100938B021150DFCF0F931F93CF933A
:100F4000DF938C01FB0180819181D80113968F3F43
:100F50009807F1F4E801AF81B88512968D919C91C4
:100F6000139793838283EC01FD83EC83B583A48381
:100F70001396FC93EE93129711870087F8018081F6
:100F80008F5F8083DF91CF911F910F910895D901D9
:100F900012962D913C911397E9014881598184174C
:100FA0009507A8F7DACFFC01738362839187808766
:100FB0004617570788F0421B530B848595854817C1
:100FC0005907C0F4BF016E5F7F4F809190029091EE
:100FD0009102B3DF80E008954217530718F46217B7
:100FE000730740F4BF016E5F7F4F80919202909132
:100FF0009302EFCF81E00895FF920F931F93CF9359
:10100000DF93EC01F62E0091A0021091A1028091D5
:101010007002909171020296F0DECF3FDC0781F4FE
:10102000FF2071F060917002709171026E5F7F4FCE
:1010300087EA92E0DF91CF911F910F91FF90BDCE93
:10104000C00FD11FE0917002F0917102D383C2836F
:101050006091700270917102C017D10760F48091A5
:10106000A3029091A4026E5F7F4FDF91CF911F91F9
:101070000F91FF9062CF8091A5029091A6026E5FC2
:101080007F4F5BDF80918C0290918D02C817D9074A
:1010900020F4D0938D02C0938C02DF91CF911F91E9
:1010A0000F91FF900895FC010396928381832FEFA7
:1010B0003FEF3483238396838583908787831082D1
:1010C00008950F920FB6F8940F920BB60F920CB6CC
:1010D0000F921F9211242F923F924F925F926F9224
:1010E0007F928F929F92AF92BF92CF92DF92EF92B8
:1010F000FF920F931F932F933F934F935F936F93A1
:101100007F938F939F93AF93BF93CF93DF93EF938F
:10111000FF93A0917002B09171020DB60D920EB6C0
:101120000D9280919D02882321F081E080938B02B3
:101130005FC010928B02A0917002B0917102E09199
:101140007002F09171022D913C918789908D8217E8
:101150009307A8F0809170029091710280917002C3
:1011600090917102279A2F9A2FEF87EA91E62150EA
:1011700080409040E1F700C000001F9AF5CF209119
:101180000A0389E001C02150422F50E0849FF00102
:10119000859FF00D1124EC52FD4F9081992399F316
:1011A000A181B28112960D90BC91A02DB283A18332
:1011B000289FC001112489529D4FA817B90729F40F
:1011C00012968D919C919283818389E0849FF00196
:1011D000859FF00D1124EC52FD4F0180F281E02D2E
:1011E00086819781909371028093700220930A0305
:1011F000A0917002B0917102CD91CDBFDD91DEBFA3
:10120000FF91EF91DF91CF91BF91AF919F918F911E
:101210007F916F915F914F913F912F911F910F910E
:10122000FF90EF90DF90CF90BF90AF909F908F9006
:101230007F906F905F904F903F902F901F900F90F6
:101240000CBE0F900BBE0F900FBE0F9008957F92B3
:101250008F929F92AF92BF92CF92DF92EF92FF92C6
:101260000F931F93CF93DF930FB6F8940F92809153
:101270009D02815080939D0280919D02882389F078
:1012800080E00F900FBEDF91CF911F910F91FF90E3
:10129000EF90DF90CF90BF90AF909F908F907F9016
:1012A000089580910D03882359F3D0E0C0E029E030
:1012B000F22EEE24E39426C0E091BE02F091BF022C
:1012C000C681D781CE010C9698DD8E010E5F1F4F2F
:1012D000C80193DD8E8990910A03981710F48093CA
:1012E0000A038F9DC0011124B8018C529D4F65DD0A
:1012F000E0917002F09171029E898689981710F032
:10130000E0928B028091B9028111D6CFCD2B09F0EA
:1013100041DBE0908902F0908A02E114F10409F4C3
:10132000ABC089E0A82E77247394CC24CA94DC2C1B
:1013300080919D0281118EC0C091A002D091A10226
:101340002196D093A102C093A0022097B1F480917E
:10135000A5029091A6022091A3023091A40230939D
:10136000A6022093A5029093A4028093A3028091E9
:10137000A2028F5F8093A2020DDB80918C0290917C
:101380008D02B12CC817D90708F058C0E09170023F
:10139000F0917102E689AE9EF0011124EC52FD4FEE
:1013A0008081823010F0BB24B39480918B02811134
:1013B00003C0BB2009F457C070928B0254C0E09167
:1013C000A502F091A6020580F681E02D0681178125
:1013D000D80112968D919C91C817D90728F4909343
:1013E0008D0280938C02D2CF4801B2E08B0E911C0B
:1013F000C40103DDF80184899589892B19F0C8019E
:101400000C96FBDCD80156968C9190910A039817A4
:1014100010F480930A038A9DC0011124B4018C52F8
:101420009D4FCBDCE0917002F0917102D80156968D
:101430009C918689981710F0BB24B394E091A50283
:10144000F091A60280818111BACFD0928D02C09214
:101450008C029CCF8091890290918A020196909390
:101460008A0280938902B1E0EB1AF10809F060CF9B
:1014700010928A021092890280918B02882309F4CB
:10148000FFCE1FDE81E0FDCEAF92BF92CF92DF9202
:10149000EF92FF920F931F93CF93DF9300D01F9291
:1014A0001F92CDB7DEB78C017B011D821C8280E0CC
:1014B000680128E0C20ED11C0FB6F8940F92F80113
:1014C000228D938D291708F073C0D28C448D411161
:1014D00056C080819181892B11F080E009C0E480A1
:1014E000F580E114F10411F580E0F8011582148211
:1014F000D394F801D28E9189992319F0C8014196AD
:10150000A0DC8111DEDD0F900FBE81E00F900F9007
:101510000F900F900F90DF91CF911F910F91FF903F
:10152000EF90DF90CF90BF90AF900895F70182A128
:10153000815082A3268991A12917B1F28111D4CFBC
:101540005701F2E0AF0EB11CC50157DCF70181A1D4
:10155000868B26E030E0281B31093587248790915F
:101560000A03981710F480930A03F9E08F9FC001D3
:101570001124B5018C529D4F20DC81E0B6CF50E0A4
:10158000B7018281938182D6F801848D22813381D3
:10159000820F932F911D938382832481358182173B
:1015A000930708F49ACF808191819383828395CFAA
:1015B0002C813D81232B21F40F900FBE80E0A6CF1C
:1015C000811109C08091A20289838091A00290912B
:1015D000A1029B838A830F900FBEDEDB0FB6F894C7
:1015E0000F92F801858D8F3F09F4158EF801868DD5
:1015F0008F3F09F4168E0F900FBEBE016C5F7F4FB8
:10160000CE0101968CDB811123C00FB6F8940F92A6
:10161000F801928D838D0F900FBE981315C0AC808A
:10162000BD806091700270917102645F7F4FC6014E
:1016300084DC61E0C501E0DCC8013FDC08DE81112B
:1016400001C03FDD81E038CFC80137DC00DEFACFD2
:10165000C80133DCFCDDB2CFCF93DF9300D01F9203
:101660001F92CDB7DEB79C0180919E0290919F02A0
:101670000097B1F019827B836A833D832C8320918C
:101680000C03BE016F5F7F4F211120919D02FCDE94
:101690000F900F900F900F900F90DF91CF910895C2
:1016A00080E0F6CFEF92FF920F931F93CF93DF93DB
:1016B000E0919202F09193028081811113C0809198
:1016C0009002909191029093930280939202F093F2
:1016D0009102E0939002DF91CF911F910F91FF90C3
:1016E000EF9008950580F681E02D00811181C6817B
:1016F000D7817E0182E0E80EF11CC7017EDBE8891C
:10170000F989CE0119958A8982FFD2CF8C859D8572
:10171000800F911F0817190758F49B838A83D98774
:10172000C887B701809192029091930206DCC0CFE6
:10173000B801CE0191DFBCCFCF93DF93EC01892BB1
:1017400021F4BFDCDF91CF91089526DB60E0CE016C
:1017500053DC7DDD8823A9F3F5CF0F920FB6F89403
:101760000F920BB60F920CB60F921F9211242F926C
:101770003F924F925F926F927F928F929F92AF9221
:10178000BF92CF92DF92EF92FF920F931F932F930E
:101790003F934F935F936F937F938F939F93AF93F9
:1017A000BF93CF93DF93EF93FF93A0917002B0911B
:1017B00071020DB60D920EB60D9213BE80919D0270
:1017C0008111F6C08091A0029091A10201969093A0
:1017D000A1028093A002009799F52091A502309173
:1017E000A6024091A3025091A4025093A6024093F6
:1017F000A5023093A4022093A3022091A2022F5F9E
:101800002093A202E091A502F091A602208121116D
:1018100007C02FEF3FEF30938D0220938C0210C052
:10182000E091A502F091A6020580F681E02D0680E8
:10183000F781E02D2281338130938D0220938C0239
:1018400020918C0230918D028217930710F420E0D2
:101850009BC020E019E0E091A502F091A602308142
:10186000311107C08FEF9FEF90938D0280938C0210
:101870008BC0E091A502F091A6020580F681E02DD3
:101880000680F781E02D428153818417950728F463
:1018900050938D0240938C0277C0AF014E5F5F4F33
:1018A000A285B38564817581E680F780EB01FD82B6
:1018B000EC82C681D7817B836A8311966D917C917E
:1018C00012974617570721F41296DC93CE9311977F
:1018D000138612863C9131503C933C91A489B58982
:1018E0001097F9F066857785E088F188EB01FD8235
:1018F000EC82C089D1897B836A831196ED90FC903C
:101900001297BF01645F7F4FE616F70621F4129627
:10191000DC93CE931197158A148A3C9131503C93F5
:101920003C91A68930910A033A1710F4A0930A0358
:101930001A9FD0011124BD016C527D4F7B01DB0148
:101940001196CD91DC91D583C4836C817D817783A1
:1019500066836C817D81DB0113965C934E931297B5
:101960005D834C83F386E286E70138813F5F3883ED
:10197000A0917002B0917102468956963C9143172E
:1019800008F469CF21E067CFE0917002F091710215
:10199000E689D9E0ED9FF0011124EC52FD4F8081E2
:1019A000823008F021E080918B0281110EC00AC0C4
:1019B0008091890290918A02019690938A02809385
:1019C00089026AC0222309F467C080919D0288239E
:1019D00021F081E080938B025FC010928B02A09176
:1019E0007002B0917102E0917002F09171022D913C
:1019F0003C918789908D82179307A8F0809170029F
:101A0000909171028091700290917102279A2F9AA1
:101A10002FEF67EA71E6215060407040E1F700C0A7
:101A200000001F9AF5CF20910A0389E001C02150E0
:101A3000422F50E0849FF001859FF00D1124EC525D
:101A4000FD4F9081992399F3A181B28112960D9057
:101A5000BC91A02DB283A183289FC001112489527B
:101A60009D4FA817B90729F412968D919C919283E6
:101A7000818389E0849FF001859FF00D1124EC5251
:101A8000FD4F0180F281E02D868197819093710254
:101A90008093700220930A03A0917002B0917102AA
:101AA000CD91CDBFDD91DEBFFF91EF91DF91CF9161
:101AB000BF91AF919F918F917F916F915F914F9166
:101AC0003F912F911F910F91FF90EF90DF90CF905A
:101AD000BF90AF909F908F907F906F905F904F904E
:101AE0003F902F901F900F900CBE0F900BBE0F9049
:101AF0000FBE0F900895CF93DF93009739F0EC015C
:101B00004BD9CE0132D3DF91CF91A1CBDF91CF91D1
:101B10000895CF93DF93EC013FD9CE018AD2EC0137
:101B200096DB209769F4279A2F9A2FEF80E792E0AF
:101B3000215080409040E1F700C000001F9AF5CF8F
:101B4000CE01DF91CF9108958F929F92AF92BF9275
:101B5000CF92DF92EF92FF920F931F93CF93DF9379
:101B60005C014B017A018901CA01D3DF6C01892B29
:101B700009F4CBC088E290E0CCDFEC01892B09F4BA
:101B8000C2C0D88ECF8AA70165EA70E0C60187D3AC
:101B900021E0E21AF108EF89F88DEE0DFF1DB40186
:101BA000CE0149969401285F3F4FDB014D91BD0165
:101BB000DC014D93CD01AB0141505109DA014C914B
:101BC000442319F02617370781F718A21E8A19A295
:101BD0001AA21B861A861D8A1C8AD987C88786E0A6
:101BE00090E09D878C87DB8BCA8B1BA21CA21DA259
:101BF0001EA21FA2A082DF011197BC9211971C9216
:101C000011971C92119780E88C9311971C92119751
:101C10001C9211971C9257971C9211971C92B69781
:101C2000F983E8830115110519F0F801D183C08308
:101C30000FB6F8940F9280910D038F5F80930D0380
:101C40008091700290917102892B09F06CC0D09341
:101C50007102C093700280910D03813069F584EDAB
:101C600092E021DA8DED92E01EDA86EE92E01BDA48
:101C70008FEE92E018DA88EF92E015DA81E093E0D7
:101C800012DA8BEC92E00FDA82EC92E00CDA89EB5C
:101C900092E009DA80EB92E006DA87EA92E003DA72
:101CA0008BEC92E09093A6028093A50282EC92E0E6
:101CB0009093A4028093A30280910B038F5F809383
:101CC0000B038E8990910A03981710F480930A03EE
:101CD000F9E08F9FC0011124BE016E5F7F4F8C52CF
:101CE0009D4F6BD80F900FBE80910C03882349F055
:101CF000E0917002F091710296898E89981708F42C
:101D0000E0D981E003C0C601F6DE8FEFDF91CF910D
:101D10001F910F91FF90EF90DF90CF90BF90AF9009
:101D20009F908F90089580910C038111C5CFE09111
:101D30007002F091710296898E89891708F4BCCFE0
:101D4000D0937102C0937002B7CFCF93DF9327E88F
:101D500032E040EC50E066E572E081E992E0F4DECA
:101D6000813009F0B0C00FB6F8940F9280919E02B6
:101D700090919F02892B09F04AC08CE792E093D999
:101D800083E792E090D98CE792E09093930280935E
:101D9000920283E792E0909391028093900281E512
:101DA00090E0B7DEEC01009771F14F96998388833C
:101DB0008AE08B8F85E08C8F0FB6F8940F92888124
:101DC00099812B8D4C8DBC01249F600D711D1124B8
:101DD0007D836C831A8E9B838A832150330B429FB1
:101DE000B001439F700D1124860F971F9F838E8330
:101DF0008FEF8D8F8E8FCE01089655D9CE014196EB
:101E000052D90F900FBED0939F02C0939E020F90A5
:101E10000FBE80919E0290919F02892B09F453C0BE
:101E200025E832E045E550E06BE572E085EF90E0B3
:101E30008BDE813009F047C0F8942FEF3FEF3093ED
:101E40008D0220938C0280930C031092A1021092B9
:101E5000A002A89588E190EC0FB6F894A89580931D
:101E600060000FBE90936000A0917002B09171026B
:101E7000CD91CDBFDD91DEBFFF91EF91DF91CF918D
:101E8000BF91AF919F918F917F916F915F914F9192
:101E90003F912F911F910F91FF90EF90DF90CF9086
:101EA000BF90AF909F908F907F906F905F904F907A
:101EB0003F902F901F900F900CBE0F900BBE0F9075
:101EC0000FBE0F900895DF91CF91089546DC1895CD
:101ED000789484B5826084BD84B5816084BD85B505
:101EE000826085BD85B5816085BD80916E00816011
:101EF00080936E00109281008091810082608093B7
:101F000081008091810081608093810080918000B8
:101F10008160809380008091B10084608093B100E3
:101F20008091B00081608093B000809191008260C8
:101F300080939100809191008160809391008091C5
:101F400090008160809390008091A10082608093D6
:101F5000A1008091A10081608093A1008091A000E8
:101F600081608093A0008091210182608093210193
:101F70008091210181608093210180912001816005
:101F80008093200180917A00846080937A00809110
:101F90007A00826080937A0080917A0081608093D9
:101FA0007A0080917A00806880937A001092C10054
:101FB00020910A0230910B028FEF91E2821B930B6A
:101FC00090930702809306020E949105BEDE0E9454
:101FD00091050E940E04FDCFEEE0F3E01382128221
:101FE00088EE93E0A0E0B0E084839583A683B78376
:101FF00080E192E09183808385EC90E095878487EF
:1020000084EC90E09787868780EC90E0918B808BC2
:1020100081EC90E0938B828B82EC90E0958B848BAB
:1020200086EC90E0978B868B118E128E138E148E19
:1020300008950F931F93CF93DF938230910510F48F
:1020400082E090E0E091AD03F091AE0330E020E05B
:10205000B0E0A0E0309799F42115310509F44AC0A9
:10206000281B390B24303105D8F58A819B816115F5
:10207000710589F1FB0193838283FE0111C04081C8
:1020800051810281138148175907E0F04817590719
:1020900099F4109761F012960C93129713961C9373
:1020A0003296CF01DF91CF911F910F910895009348
:1020B000AD031093AE03F4CF2115310551F0421753
:1020C000530738F0A901DB019A01BD01DF01F801D6
:1020D000C1CFEF01F9CF9093AE038093AD03CDCF85
:1020E000FE01E20FF31F819391932250310939834E
:1020F0002883D7CF2091AB033091AC03232B41F43D
:1021000020910802309109023093AC032093AB0375
:1021100020910602309107022115310541F42DB7B7
:102120003EB740910A0250910B02241B350BE091FF
:10213000AB03F091AC03E217F307A0F42E1B3F0BA7
:102140002817390778F0AC014E5F5F4F2417350729
:1021500048F04E0F5F1F5093AC034093AB03819345
:1021600091939FCFF0E0E0E09CCFCF93DF93009777
:10217000E9F0FC01329713821282A091AD03B09175
:10218000AE03ED0130E020E01097A1F42081318111
:10219000820F931F2091AB033091AC0328173907AE
:1021A00009F061C0F093AC03E093AB03DF91CF91F2
:1021B0000895EA01CE17DF07E8F54A815B819E01A9
:1021C00041155105B1F7E901FB83EA834991599122
:1021D000C40FD51FEC17FD0761F480819181029631
:1021E000840F951FE90199838883828193819B8362
:1021F0008A83F0E0E0E012968D919C91139700970E
:10220000B9F52D913C911197CD010296820F931F44
:102210002091AB033091AC032817390739F630977A
:1022200051F51092AE031092AD03B093AC03A0939E
:10223000AB03BCCFD383C28340815181840F951FF0
:10224000C817D90761F44E5F5F4F88819981480FA5
:10225000591F518340838A819B81938382832115F7
:10226000310509F0B0CFF093AE03E093AD039ECFFC
:10227000FD01DC01C0CF13821282D7CFEE0FFF1F0A
:10228000881F8BBF0790F691E02D1994FB01DC01AC
:1022900002C001900D9241505040D8F70895DC01E2
:1022A00001C06D9341505040E0F70895F894FFCF7E
:1022B0000100020003000000AF03800000000000E6
:1022C000A3030E033B03EF036C034A035E030D0AF3
:1022D00000543420657865637574696E6700543303
:1022E00020457865637574696E670A00543220650D
:1022F0007865637574696E6700543120457865634D
:102300007574696E670049444C4500546D722053E2
:1023100076630054310054320054330054340000CA
:00000001FF
