:1000000037C2000066C2000064C2000062C2000085
:1000100060C200005EC200005CC200005AC2000064
:1000200058C2000056C2000054C2000052C2000074
:100030000C94F30D4EC200004CC200004AC20000F6
:1000400048C2000046C2000044C2000042C2000094
:1000500040C200003EC200003CC2000016C40000C6
:1000600038C2000085C400005AC4000032C200003B
:1000700030C200002EC200002CC200002AC20000C4
:1000800028C2000026C2000024C2000022C20000D4
:1000900020C200001EC200001CC200001AC20000E4
:1000A00018C2000016C2000014C2000012C20000F4
:1000B00010C200000EC200000CC200000AC2000004
:1000C00008C2000006C2000004C2000002C2000014
:1000D00000C20000FEC10000FCC10000FAC1000027
:1000E000F8C10000CF93DF9300D000D000D01F9262
:1000F000CDB7DEB7E091CF02F091D002F08010E0F2
:1001000000E0FF2029F00580F681E02D00811181BB
:10011000A2D497D46C018091CB029091CC02C816E6
:10012000D90608F079C00E94B109D092CC02C092E1
:10013000CB02ECD60091DC021091DD021A86198602
:1001400080E06801B1E1CB0ED11C0FB6F8940F929C
:10015000F801F28CFF2009F40BC1448D4423C1F057
:1001600050E086819781840F951F97838683248131
:1001700035818217930720F0808191819783868350
:10018000D80116966D917C91CE0101960E94D30FF5
:10019000FA94F801F28E8085882329F0C801089628
:1001A000AFD48111EDD50F900FBED980D7FCC2CF4F
:1001B0000C811D81D8011A968D919C91892B19F083
:1001C000C801029679D43DD47C018091CB029091F4
:1001D000CC02E816F90610F40E94B109F092CC02A4
:1001E000E092CB02B9E0BD1508F4A4CFED2DDD0CF3
:1001F000FF0BD80152969C918827EE5FFE4F8F4FE0
:100200000C94CB0F7E017E017E01B3019F01AD01F5
:100210007E017E01B3019F01D092CC02C092CB023D
:10022000FF2081F1C016D106A8F170D6E091CF026F
:10023000F091D0020580F681E02DE680F780C701BD
:1002400002963AD4D70152968C91529782FF16C0EB
:100250001C966D917C91600F711F9801A601C701DA
:1002600001D5882321F0B801C7010E948B09D7016D
:100270005096ED91FC91C70119955CCF8E7FF701E7
:10028000828BF5CFE091CD02F091CE028081BB242C
:10029000B3948111B12CE090DC02F090DD020FB636
:1002A000F8940F92F701858D8F3F09F4158ED701D1
:1002B0005E968C915E978F3F11F45E961C920F9024
:1002C0000FBEF701828D811112C060917A02709188
:1002D0007B02645F7F4FC7014196CED3C8018C1962
:1002E0009D09BB2011F08FEF9FEF6B2DE4D4C70168
:1002F00043D40CD681111ECF43D51CCF9160F80199
:10030000928BCA80DB80648575856C0D7D1D96019E
:10031000A701C801A7D4882309F40CCFD8015096AF
:10032000ED91FC91C8011995F801828982FF02CFF5
:10033000648575856C0D7D1DC801EDD7FBCE916080
:10034000F801928B6A817B81758764876E0D7F1DB2
:100350009701A701C80186D4EDCE91FD04C0C80164
:100360000E94D70BE7CE9E7FD80152969C93E2CE97
:1003700029853A85232B19F40F900FBEBBCE81112E
:1003800009C08091E0028E838091DE029091DF02AD
:1003900098878F830F900FBE5ED30FB6F8940F929D
:1003A000D8015D968C915D978F3F11F45D961C92FC
:1003B000F801868D8F3F09F4168E0F900FBEBE0197
:1003C000675F7F4FCE01069609D381111DC0C8011A
:1003D00048D38823A9F0E984FA8460917A02709165
:1003E0007B02645F7F4FC60107D461E0C70163D41D
:1003F000C801C2D38BD5811101C0C2D481E0A5CE82
:10040000C801BAD383D5FACFC801B6D37FD5C80106
:1004100028D3882399F36ECE80917C02811107C086
:100420008091E102823008F0ABD454D1F5CF0FB601
:10043000F8940F92E091AA02F091AB02C681D781A5
:10044000CE01029639D38091CA0281508093CA02AC
:1004500080917C02815080937C020F900FBE8F8927
:10046000988D0E94D70BCE010E94D70BD5CF790E65
:1004700011241FBECFEFD1E2DEBFCDBF00E00CBF25
:1004800012E0A0E0B2E0EAECFFE100E00BBF02C046
:1004900007900D92AA37B107D9F723E0AAE7B2E097
:1004A00001C01D92A73AB207E1F712E0C8E3D2E01B
:1004B00000E006C021970109802FFE010E94CB0FAA
:1004C000C733D10780E00807A9F70E94F50D0C9407
:1004D000E30F96CDAF92BF92CF92DF92EF92FF9251
:1004E0000F931F93CF93DF936C017B018B01040F5C
:1004F000151FEB015E01AE18BF08C017D10759F0F8
:100500006991D601ED91FC910190F081E02DC60139
:100510001995892B79F7C501DF91CF911F910F9123
:10052000FF90EF90DF90CF90BF90AF900895FC01C7
:10053000538D448D252F30E0842F90E0821B930B48
:10054000541710F0CF96089501970895FC01918DEE
:10055000828D981761F0A28DAE0FBF2FB11D5D96F1
:100560008C91928D9F5F9F73928F90E008958FEF93
:100570009FEF0895FC01918D828D981731F0828D47
:10058000E80FF11D858D90E008958FEF9FEF08959E
:10059000FC01918D228D892F90E0805C9F4F821B02
:1005A00091098F739927089586E093E0F1DF21E0A8
:1005B000892B09F420E0822F0895FC01A48DA80F57
:1005C000B92FB11DA35ABF4F2C91848D90E0019695
:1005D0008F739927848FA689B7892C93A089B189B5
:1005E0008C91837080648C93938D848D981306C056
:1005F0000288F389E02D80818F7D80830895EF92BA
:10060000FF920F931F93CF93DF93EC0181E0888FCC
:100610009B8D8C8D98131AC0E889F989808185FF9C
:1006200015C09FB7F894EE89FF896083E889F9893E
:1006300080818370806480839FBF81E090E0DF9140
:10064000CF911F910F91FF90EF900895F62E0B8D93
:1006500010E00F5F1F4F0F731127E02E8C8D8E114E
:100660000BC00FB607FCFACFE889F989808185FFB6
:10067000F5CFCE01A2DFF2CFEB8DEC0FFD2FF11DF8
:10068000E35AFF4FF0829FB7F8940B8FEA89FB89FA
:1006900080818062D0CFCF93DF93EC01888D882357
:1006A000B1F0AA89BB89E889F9898C9185FD03C0DD
:1006B000808186FD0CC00FB607FCF7CF8C9185FFBB
:1006C000F2CF808185FFEDCFCE0177DFEACFDF91DA
:1006D000CF91089580E090E0892B21F065DF8111B2
:1006E0000E94000080E090E0892B49F080E090E0DB
:1006F000892B29F00E94000081110E94000080E0F7
:1007000090E0892B49F080E090E0892B29F00E944D
:10071000000081110E94000080E090E0892B49F0E8
:1007200080E090E0892B29F00E94000081110C9458
:1007300000000895E0919A02F0919B02808181115E
:1007400007C08FEF9FEF90939702809396020895D2
:10075000E0919A02F0919B020580F681E02D0680DF
:10076000F781E02D82819381EECFFC010190002082
:10077000E9F73197AF01481B590BBC0186E093E0C4
:10078000A9CECF93DF938AE292E0EFDFEC0188E21B
:1007900092E0EBDF8C0F9D1FDF91CF9108958BE2EC
:1007A00092E0E3DFEEDF8AEF90E025D6F8CF88E332
:1007B00092E0DBDFE6DF8BEB90E01DD6F8CF86E43E
:1007C00092E0D3DFDEDF8DE790E015D6F8CF83E54A
:1007D00092E0CBDFD6DF8EE390E00DD6F8CFEF923C
:1007E000FF920F93E6E0F3E0A089B18982E08C9359
:1007F000A485B5851C92A685B7858FEC8C93108E49
:10080000A489B58986E08C93A289B3898C91806193
:100810008C93A289B3898C9188608C93A289B389C7
:100820008C9180688C930288F389E02D80818F7D84
:100830008083F12CE12C01E022E132E040E054E041
:100840006DE672E087EE93E0DBD72EE032E040E029
:1008500054E060E772E08FED93E0D2D72AE032E017
:1008600040E054E063E772E087ED93E0C9D726E00B
:1008700032E040E054E066E772E08FEC93E0C0D7EE
:100880000F91FF90EF900C94140D1F920F920FB6E2
:100890000F9211242F933F938F939F93AF93BF9306
:1008A0008091D6029091D702A091D802B091D9023E
:1008B0003091D50223E0230F2D3758F50196A11D65
:1008C000B11D2093D5028093D6029093D702A093B6
:1008D000D802B093D9028091D1029091D202A09116
:1008E000D302B091D4020196A11DB11D8093D10213
:1008F0009093D202A093D302B093D402BF91AF9150
:100900009F918F913F912F910F900FBE0F901F904D
:10091000189526E8230F0296A11DB11DD2CF1F9274
:100920000F920FB60F9211240BB60F922F933F9395
:100930004F935F936F937F938F939F93AF93BF93E7
:10094000EF93FF9386E093E038DEFF91EF91BF9144
:10095000AF919F918F917F916F915F914F913F9157
:100960002F910F900BBE0F900FBE0F901F901895F8
:100970001F920F920FB60F9211240BB60F922F9366
:100980008F939F93EF93FF93E0911603F0911703DA
:100990008081E0911C03F0911D0382FD1DC09081B8
:1009A00080911F038F5F8F7320912003821741F086
:1009B000E0911F03F0E0EA5FFC4F958F80931F03E7
:1009C000FF91EF919F918F912F910F900BBE0F9000
:1009D0000FBE0F901F9018958081F2CFFC01DB01B4
:1009E0000FB6F8940F924091DE025091DF022D91E4
:1009F0003C9111972F3F3207E1F081819281609104
:100A0000E0027081761719F048175907C0F4481BA7
:100A1000590B4217530788F4241B350B2D933C9335
:100A20008091E00280838091DE029091DF029283C8
:100A3000818380E00F900FBE08951D921C9281E08B
:100A4000F9CF0FB6F8940F928091DE029091DF02F9
:100A50000F900FBE08958091DA028F5F8093DA02C3
:100A600008950FB6F8940F92FC01928D0F900FBE6F
:100A700081E0911180E00895CF93DF939C01FB0109
:100A8000DC011196CD91DC91D383C2838C819D8151
:100A9000958384838C819D81DC0113967C936E9376
:100AA00012977D836C8331872087F90180818F5F66
:100AB0008083DF91CF910895CF93DF93FC01A085D0
:100AC000B1858281938124813581EC013D832C8322
:100AD000C481D5819B838A8311968D919C911297B5
:100AE0008E179F0721F41296DC93CE9311971186EF
:100AF00010868C9181508C938C91DF91CF910895C9
:100B00000F931F93CF93DF93DC011596ED91FC912A
:100B1000C681D7818E01045F1F4FC801CDDF809150
:100B2000DA02811123C00A501109C801C5DF8E897C
:100B300090910503981710F480930503B9E08B9FFB
:100B4000C0011124B8018F519D4F96DFE0917A02C8
:100B5000F0917B029E898689891760F481E08093F9
:100B60009502DF91CF911F910F910895B8018EEA00
:100B700092E0EBCF80E0F5CFEF92FF920F931F93BF
:100B8000CF93DF93EC010FB6F8940F921E8D7C018A
:100B900081E1E80EF11C01E01116D4F08FEF8E8F89
:100BA0000F900FBE0FB6F8940F921D8D7E0188E056
:100BB000E80EF11C01E01116ACF08FEF8D8F0F9055
:100BC0000FBEDF91CF911F910F91FF90EF9008958D
:100BD0008989882319F3C70193DF81110093950256
:100BE0001150DACF8885882341F3C70189DF81114D
:100BF000009395021150DFCF0F931F93CF93DF9394
:100C00008C01FB0180819181D80113968F3F980759
:100C1000F1F4E801AF81B88512968D919C911397FC
:100C200093838283EC01FD83EC83B583A4831396C5
:100C3000FC93EE93129711870087F80180818F5FF4
:100C40008083DF91CF911F910F910895D901129662
:100C50002D913C911397E90148815981841795079B
:100C6000A8F7DACFFC0173836283918780874617E8
:100C7000570788F0421B530B848595854817590701
:100C8000C0F4BF016E5F7F4F8091CD029091CE0284
:100C9000B3DF80E008954217530718F46217730713
:100CA00040F4BF016E5F7F4F8091CF029091D002E0
:100CB000EFCF81E00895FF920F931F93CF93DF93BF
:100CC000EC01F62E0091DE021091DF0280917A0293
:100CD00090917B020296F0DECF3FDC0781F4FF208B
:100CE00071F060917A0270917B026E5F7F4F8CE9A8
:100CF00092E0DF91CF911F910F91FF90BDCEC00F79
:100D0000D11FE0917A02F0917B02D383C28360917C
:100D10007A0270917B02C017D10760F4809198022B
:100D2000909199026E5F7F4FDF91CF911F910F914C
:100D3000FF9062CF80919A0290919B026E5F7F4FED
:100D40005BDF8091960290919702C817D90720F433
:100D5000D0939702C0939602DF91CF911F910F918C
:100D6000FF900895FC010396928381832FEF3FEF5C
:100D700034832383968385839087878310820895A5
:100D80000F920FB6F8940F920BB60F920CB60F920B
:100D90001F9211242F923F924F925F926F927F92F7
:100DA0008F929F92AF92BF92CF92DF92EF92FF927B
:100DB0000F931F932F933F934F935F936F937F9363
:100DC0008F939F93AF93BF93CF93DF93EF93FF9353
:100DD000A0917A02B0917B020DB60D920EB60D92E3
:100DE0008091DA02882321F081E0809395025FC030
:100DF00010929502A0917A02B0917B02E0917A0262
:100E0000F0917B022D913C918789908D82179307F9
:100E1000A8F080917A0290917B0280917A02909161
:100E20007B02279A2F9A2FEF87EA91E62150804084
:100E30009040E1F700C000001F9AF5CF2091050314
:100E400089E001C02150422F50E0849FF001859F2E
:100E5000F00D1124EF51FD4F9081992399F3A18159
:100E6000B28112960D90BC91A02DB283A183289FD0
:100E7000C00111248C519D4FA817B90729F412966F
:100E80008D919C919283818389E0849FF001859F5D
:100E9000F00D1124EF51FD4F0180F281E02D86818C
:100EA000978190937B0280937A0220930503A0910F
:100EB0007A02B0917B02CD91CDBFDD91DEBFFF9173
:100EC000EF91DF91CF91BF91AF919F918F917F91E2
:100ED0006F915F914F913F912F911F910F91FF90D3
:100EE000EF90DF90CF90BF90AF909F908F907F90CA
:100EF0006F905F904F903F902F901F900F900CBE7F
:100F00000F900BBE0F900FBE0F9008957F928F929F
:100F10009F92AF92BF92CF92DF92EF92FF920F9388
:100F20001F93CF93DF930FB6F8940F928091DA025C
:100F300081508093DA028091DA02882389F080E080
:100F40000F900FBEDF91CF911F910F91FF90EF9007
:100F5000DF90CF90BF90AF909F908F907F9008953B
:100F60008091CA02882359F3D0E0C0E029E0F22E34
:100F7000EE24E39426C0E091B302F091B402C6815E
:100F8000D781CE010C9698DD8E010E5F1F4FC801F0
:100F900093DD8E8990910503981710F480930503D3
:100FA0008F9DC0011124B8018F519D4F65DDE091E7
:100FB0007A02F0917B029E898689981710F0E09260
:100FC00095028091AE028111D6CFCD2B09F0B2DB14
:100FD000E0909302F0909402E114F10409F4ABC0A4
:100FE00089E0A82E77247394CC24CA94DC2C8091B9
:100FF000DA0281118EC0C091DE02D091DF0221960B
:10100000D093DF02C093DE022097B1F480919A0260
:1010100090919B02209198023091990230939B020B
:1010200020939A0290939902809398028091E00213
:101030008F5F8093E0027EDB809196029091970211
:10104000B12CC817D90708F058C0E0917A02F09186
:101050007B02E689AE9EF0011124EF51FD4F8081A5
:10106000823010F0BB24B39480919502811103C0AB
:10107000BB2009F457C07092950254C0E0919A02C7
:10108000F0919B020580F681E02D06811781D80141
:1010900012968D919C91C817D90728F490939702C6
:1010A00080939602D2CF4801B2E08B0E911CC4010E
:1010B00003DDF80184899589892B19F0C8010C9604
:1010C000FBDCD80156968C9190910503981710F48B
:1010D000809305038A9DC0011124B4018F519D4F57
:1010E000CBDCE0917A02F0917B02D80156969C917C
:1010F0008689981710F0BB24B394E0919A02F0917E
:101100009B0280818111BACFD0929702C092960241
:101110009CCF8091930290919402019690939402B7
:1011200080939302B1E0EB1AF10809F060CF1092BE
:1011300094021092930280919502882309F4FFCEC5
:101140001FDE81E0FDCEAF92BF92CF92DF92EF9291
:10115000FF920F931F93CF93DF9300D01F921F92A4
:10116000CDB7DEB78C017B011D821C8280E0680157
:1011700028E0C20ED11C0FB6F8940F92F801228D10
:10118000938D291708F073C0D28C448D411156C03D
:1011900080819181892B11F080E009C0E480F58085
:1011A000E114F10411F580E0F80115821482D39462
:1011B000F801D28E9189992319F0C8014196A0DCDB
:1011C0008111DEDD0F900FBE81E00F900F900F9028
:1011D0000F900F90DF91CF911F910F91FF90EF90A3
:1011E000DF90CF90BF90AF900895F70182A181501A
:1011F00082A3268991A12917B1F28111D4CF570179
:10120000F2E0AF0EB11CC50157DCF70181A1868B5E
:1012100024E030E0281B31093587248790910503AD
:10122000981710F480930503F9E08F9FC0011124F3
:10123000B5018F519D4F20DC81E0B6CF50E0B70162
:1012400082819381B0D6F801848D22813381820F0F
:10125000932F911D93838283248135818217930775
:1012600008F49ACF808191819383828395CF2C81DA
:101270003D81232B21F40F900FBE80E0A6CF81117A
:1012800009C08091E00289838091DE029091DF02A3
:101290009B838A830F900FBEDEDB0FB6F8940F920C
:1012A000F801858D8F3F09F4158EF801868D8F3FEB
:1012B00009F4168E0F900FBEBE016C5F7F4FCE01FA
:1012C00001968CDB811123C00FB6F8940F92F801C0
:1012D000928D838D0F900FBE981315C0AC80BD808A
:1012E00060917A0270917B02645F7F4FC60184DC5B
:1012F00061E0C501E0DCC8013FDC08DE811101C00E
:101300003FDD81E038CFC80137DC00DEFACFC8010D
:1013100033DCFCDDB2CFCF93DF9300D01F921F925E
:10132000CDB7DEB79C018091DC029091DD02009781
:10133000B1F019827B836A833D832C832091DB0289
:10134000BE016F5F7F4F21112091DA02FCDE0F900A
:101350000F900F900F900F90DF91CF91089580E044
:10136000F6CFEF92FF920F931F93CF93DF93E0910D
:10137000CF02F091D0028081811113C08091CD0203
:101380009091CE029093D0028093CF02F093CE0240
:10139000E093CD02DF91CF911F910F91FF90EF90DD
:1013A00008950580F681E02D00811181C681D781E5
:1013B0007E0182E0E80EF11CC7017EDBE889F98935
:1013C000CE0119958A8982FFD2CF8C859D85800FA9
:1013D000911F0817190758F49B838A83D987C887F8
:1013E000B7018091CF029091D00206DCC0CFB80146
:1013F000CE0191DFBCCFCF93DF93EC012CDB60E01B
:10140000CE0159DC83DD811101C0BADCDF91CF91BF
:1014100008950F920FB6F8940F920BB60F920CB678
:101420000F921F9211242F923F924F925F926F92D0
:101430007F928F929F92AF92BF92CF92DF92EF9264
:10144000FF920F931F932F933F934F935F936F934D
:101450007F938F939F93AF93BF93CF93DF93EF933C
:10146000FF93A0917A02B0917B020DB60D920EB659
:101470000D9213BE8091DA028111F6C08091DE02D6
:101480009091DF0201969093DF028093DE02009735
:1014900099F520919A0230919B02409198025091C7
:1014A000990250939B0240939A02309399022093A1
:1014B00098022091E0022F5F2093E002E0919A02CF
:1014C000F0919B022081211107C02FEF3FEF309355
:1014D00097022093960210C0E0919A02F0919B022D
:1014E0000580F681E02D0680F781E02D2281338191
:1014F00030939702209396022091960230919702A2
:101500008217930710F420E09BC020E019E0E091DF
:101510009A02F0919B023081311107C08FEF9FEF4B
:1015200090939702809396028BC0E0919A02F0917B
:101530009B020580F681E02D0680F781E02D428137
:1015400053818417950728F450939702409396028D
:1015500077C0AF014E5F5F4FA285B385648175810F
:10156000E680F780EB01FD82EC82C681D7817B8328
:101570006A8311966D917C9112974617570721F453
:101580001296DC93CE931197138612863C913150BC
:101590003C933C91A489B5891097F9F066857785CD
:1015A000E088F188EB01FD82EC82C089D1897B83E0
:1015B0006A831196ED90FC901297BF01645F7F4F94
:1015C000E616F70621F41296DC93CE931197158A4E
:1015D000148A3C9131503C933C91A689309105038B
:1015E0003A1710F4A09305031A9FD0011124BD01EE
:1015F0006F517D4F7B01DB011196CD91DC91D5833D
:10160000C4836C817D81778366836C817D81DB01FE
:1016100013965C934E9312975D834C83F386E28618
:10162000E70138813F5F3883A0917A02B0917B0255
:10163000468956963C91431708F469CF21E067CF5D
:10164000E0917A02F0917B02E689D9E0ED9FF0010A
:101650001124EF51FD4F8081823008F021E080910C
:10166000950281110EC00AC080919302909194025C
:10167000019690939402809393026AC0222309F406
:1016800067C08091DA02882321F081E0809395027F
:101690005FC010929502A0917A02B0917B02E09116
:1016A0007A02F0917B022D913C918789908D82176F
:1016B0009307A8F080917A0290917B0280917A0240
:1016C00090917B02279A2F9A2FEF67EA71E62150BB
:1016D00060407040E1F700C000001F9AF5CF2091F4
:1016E000050389E001C02150422F50E0849FF001A2
:1016F000859FF00D1124EF51FD4F9081992399F3AF
:10170000A181B28112960D90BC91A02DB283A183CC
:10171000289FC00111248C519D4FA817B90729F4A7
:1017200012968D919C919283818389E0849FF00130
:10173000859FF00D1124EF51FD4F0180F281E02DC6
:101740008681978190937B0280937A022093050390
:10175000A0917A02B0917B02CD91CDBFDD91DEBF29
:10176000FF91EF91DF91CF91BF91AF919F918F91B9
:101770007F916F915F914F913F912F911F910F91A9
:10178000FF90EF90DF90CF90BF90AF909F908F90A1
:101790007F906F905F904F903F902F901F900F9091
:1017A0000CBE0F900BBE0F900FBE0F900895CF93FD
:1017B000DF93009739F0EC014ED9CE0163D3DF916E
:1017C000CF91A4CBDF91CF910895CF93DF93EC011C
:1017D00042D9CE01BBD2EC0199DB209769F4279A5C
:1017E0002F9A2FEF80E792E0215080409040E1F760
:1017F00000C000001F9AF5CFCE01DF91CF91089570
:101800005F926F927F928F929F92AF92BF92CF9290
:10181000DF92EF92FF920F931F93CF93DF93782E77
:10182000192F562E672E6A014901CA01CEDF5C01CD
:10183000892B09F4D6C08AE290E0C7DFEC01892B3E
:1018400009F4CDC0B88EAF8AA60165EA70E0C50183
:10185000B3D321E0C21AD108EF89F88DEC0DFD1D3C
:10186000652D762DCE0149969B01285F3F4FDB0108
:101870004D91BD01DC014D93CD01AB0141505109AA
:10188000DA014C91442319F06217730781F718A20B
:101890000E8B09A31AA21B861A861D8A1C8AD98759
:1018A000C88784E090E0801B91099D878C87DB8B43
:1018B000CA8B1BA21CA21DA21EA21FA27082DF0146
:1018C00011971C9311971C9211971C92119780E805
:1018D0008C9311971C9211971C9211971C925797F9
:1018E0008C9211979C92B697F983E883F4018081DA
:1018F000918199A788A7E114F10419F0D701CD933C
:10190000DC930FB6F8940F928091CA028F5F809398
:10191000CA0280917A0290917B02892B09F072C0F1
:10192000D0937B02C0937A028091CA02813039F54C
:1019300081EE92E017DA8AEE92E014DA83EF92E019
:1019400011DA8CEF92E00EDA80EC92E00BDA87EBA2
:1019500092E008DA8EEA92E005DA85EA92E002DAAD
:101960008CE992E0FFD980EC92E090939B02809307
:101970009A0287EB92E0909399028093980280916B
:10198000C9028F5F8093C9021E8980910503811768
:1019900010F410930503E885F985E0A4F1A451D86B
:1019A0008E0D9F1D9B838A83B9E01B9FC00111246C
:1019B000BE016E5F7F4F8F519D4F1ED90F900FBE9E
:1019C0008091DB02882349F0E0917A02F0917B025A
:1019D00096898E89981708F4D3D981E003C0C50190
:1019E000E6DE8FEFDF91CF911F910F91FF90EF9087
:1019F000DF90CF90BF90AF909F908F907F906F902F
:101A00005F9008958091DB028111B9CFE0917A0255
:101A1000F0917B0296898E89891708F4B0CFD09314
:101A20007B02C0937A02ABCFEF92FF920F931F938A
:101A3000CF93DF931F921F92CDB7DEB784E690E07D
:101A40009A83898391E9E92E92E0F92E00E09E01C4
:101A50002F5F3F4F40EC50E060E672E08CE092E098
:101A6000CFDE813009F0B6C00FB6F8940F928091A6
:101A7000DC029091DD02892B09F04BC086E892E0F0
:101A800071D98DE792E06ED986E892E09093D0020A
:101A90008093CF028DE792E09093CE028093CD02A7
:101AA00081E590E092DE8C01009779F14F96F80184
:101AB000918380838AE0838F85E0848F0FB6F894CA
:101AC0000F9280819181238D448DBC01249F600DF4
:101AD000711D112475836483128E93838283215038
:101AE000330B429FB001439F700D1124860F971F47
:101AF000978386838FEF858F868FC801089632D9AA
:101B0000C80141962FD90F900FBE1093DD020093AC
:101B1000DC020F900FBE8091DC029091DD02892BD8
:101B200009F458C08FE8E82E82E0F82E03E030E098
:101B300020E045E550E065E672E082E790E060DE97
:101B4000813009F047C0F8942FEF3FEF30939702B0
:101B5000209396028093DB021092DF021092DE0245
:101B6000A89588E190EC0FB6F894A8958093600052
:101B70000FBE90936000A0917A02B0917B02CD914C
:101B8000CDBFDD91DEBFFF91EF91DF91CF91BF918E
:101B9000AF919F918F917F916F915F914F913F9105
:101BA0002F911F910F91FF90EF90DF90CF90BF90FA
:101BB000AF909F908F907F906F905F904F903F90ED
:101BC0002F901F900F900CBE0F900BBE0F900FBE6A
:101BD0000F9008950F900F90DF91CF911F910F916B
:101BE000FF90EF90089515DC1895789484B5826085
:101BF00084BD84B5816084BD85B5826085BD85B5B1
:101C0000816085BD80916E00816080936E0010922E
:101C100081008091810082608093810080918100A9
:101C2000816080938100809180008160809380003A
:101C30008091B10084608093B1008091B000816098
:101C40008093B00080919100826080939100809198
:101C500091008160809391008091900081608093D9
:101C600090008091A10082608093A1008091A100EA
:101C700081608093A1008091A00081608093A0008A
:101C800080912101826080932101809121018160F6
:101C900080932101809120018160809320018091B7
:101CA0007A00846080937A0080917A0082608093C9
:101CB0007A0080917A00816080937A0080917A0026
:101CC000806880937A001092C100209104023091C4
:101CD00005028FEF91E2821B930B90930102809398
:101CE00000020E94EF03A0DE0E94EF030E946A033D
:101CF000FDCFE6E0F3E01382128288EE93E0A0E0ED
:101D0000B0E084839583A683B7838AE192E09183D0
:101D1000808385EC90E09587848784EC90E09787BA
:101D2000868780EC90E0918B808B81EC90E0938BA8
:101D3000828B82EC90E0958B848B86EC90E0978B85
:101D4000868B118E128E138E148E08950F931F930F
:101D5000CF93DF938230910510F482E090E0E09120
:101D6000A503F091A60330E020E0B0E0A0E03097BA
:101D700099F42115310509F44AC0281B390B243088
:101D80003105D8F58A819B816115710589F1FB01C7
:101D900093838283FE0111C04081518102811381AE
:101DA00048175907E0F04817590799F4109761F060
:101DB00012960C93129713961C933296CF01DF91D3
:101DC000CF911F910F9108950093A5031093A6033F
:101DD000F4CF2115310551F04217530738F0A9010E
:101DE000DB019A01BD01DF01F801C1CFEF01F9CF9D
:101DF0009093A6038093A503CDCFFE01E20FF31FBE
:101E0000819391932250310939832883D7CF209130
:101E1000A3033091A403232B41F4209102023091BB
:101E200003023093A4032093A30320910002309176
:101E300001022115310541F42DB73EB7409104024E
:101E400050910502241B350BE091A303F091A403EC
:101E5000E217F307A0F42E1B3F0B2817390778F081
:101E6000AC014E5F5F4F2417350748F04E0F5F1FE0
:101E70005093A4034093A303819391939FCFF0E0E9
:101E8000E0E09CCFCF93DF930097E9F0FC0132971D
:101E900013821282A091A503B091A603ED0130E058
:101EA00020E01097A1F420813181820F931F2091AF
:101EB000A3033091A4032817390709F061C0F093F8
:101EC000A403E093A303DF91CF910895EA01CE1715
:101ED000DF07E8F54A815B819E0141155105B1F7A5
:101EE000E901FB83EA8349915991C40FD51FEC178F
:101EF000FD0761F4808191810296840F951FE901AD
:101F000099838883828193819B838A83F0E0E0E0D8
:101F100012968D919C9113970097B9F52D913C9154
:101F20001197CD010296820F931F2091A303309148
:101F3000A4032817390739F6309751F51092A603F4
:101F40001092A503B093A403A093A303BCCFD383A3
:101F5000C28340815181840F951FC817D90761F44E
:101F60004E5F5F4F88819981480F591F518340838D
:101F70008A819B81938382832115310509F0B0CF3B
:101F8000F093A603E093A5039ECFFD01DC01C0CF33
:101F900013821282D7CFEE0FFF1F881F8BBF0790CF
:101FA000F691E02D1994FB01DC0102C001900D9225
:101FB00041505040D8F70895DC0101C06D93415065
:0A1FC0005040E0F70895F894FFCFB9
:101FCA000000A7038000280000000A000000140097
:101FDA0000001E00000000000000FF026A029702D3
:101FEA004B03C802A602BA020D0A005434206578CF
:101FFA0065637574696E6700543320457865637547
:10200A0074696E670A00543220657865637574696D
:10201A006E6700543120457865637574696E670090
:10202A0049444C4500546D72205376630054310084
:0A203A005432005433005434000007
:00000001FF
